{
  "_format": "hh-sol-artifact-1",
  "contractName": "FileAccessControl",
  "sourceName": "contracts/FileAccessControl.sol",
  "abi": [
    {
      "anonymous": false,
      "inputs": [
        {
          "indexed": true,
          "internalType": "bytes32",
          "name": "fileId",
          "type": "bytes32"
        },
        {
          "indexed": false,
          "internalType": "address",
          "name": "owner",
          "type": "address"
        },
        {
          "indexed": false,
          "internalType": "string",
          "name": "name",
          "type": "string"
        },
        {
          "indexed": false,
          "internalType": "string",
          "name": "readRule",
          "type": "string"
        },
        {
          "indexed": false,
          "internalType": "address[]",
          "name": "writeList",
          "type": "address[]"
        },
        {
          "indexed": false,
          "internalType": "uint256",
          "name": "threshold",
          "type": "uint256"
        }
      ],
      "name": "AddFile",
      "type": "event"
    },
    {
      "anonymous": false,
      "inputs": [
        {
          "indexed": true,
          "internalType": "address",
          "name": "previousOwner",
          "type": "address"
        },
        {
          "indexed": true,
          "internalType": "address",
          "name": "newOwner",
          "type": "address"
        }
      ],
      "name": "OwnershipTransferred",
      "type": "event"
    },
    {
      "anonymous": false,
      "inputs": [
        {
          "indexed": true,
          "internalType": "bytes32",
          "name": "proposalId",
          "type": "bytes32"
        },
        {
          "indexed": true,
          "internalType": "bytes32",
          "name": "fileId",
          "type": "bytes32"
        },
        {
          "indexed": false,
          "internalType": "string",
          "name": "oldname",
          "type": "string"
        },
        {
          "indexed": false,
          "internalType": "string",
          "name": "newname",
          "type": "string"
        }
      ],
      "name": "UpdateFile",
      "type": "event"
    },
    {
      "anonymous": false,
      "inputs": [
        {
          "indexed": true,
          "internalType": "bytes32",
          "name": "proposalId",
          "type": "bytes32"
        },
        {
          "indexed": true,
          "internalType": "bytes32",
          "name": "fileId",
          "type": "bytes32"
        },
        {
          "indexed": false,
          "internalType": "string",
          "name": "oldname",
          "type": "string"
        },
        {
          "indexed": false,
          "internalType": "string",
          "name": "newname",
          "type": "string"
        }
      ],
      "name": "UpdateProposal",
      "type": "event"
    },
    {
      "anonymous": false,
      "inputs": [
        {
          "indexed": true,
          "internalType": "bytes32",
          "name": "newFileId",
          "type": "bytes32"
        },
        {
          "indexed": true,
          "internalType": "bytes32",
          "name": "oldFileId",
          "type": "bytes32"
        },
        {
          "indexed": false,
          "internalType": "string",
          "name": "readRule",
          "type": "string"
        }
      ],
      "name": "UpdateReadRule",
      "type": "event"
    },
    {
      "anonymous": false,
      "inputs": [
        {
          "indexed": true,
          "internalType": "bytes32",
          "name": "newFileId",
          "type": "bytes32"
        },
        {
          "indexed": true,
          "internalType": "bytes32",
          "name": "oldFileId",
          "type": "bytes32"
        },
        {
          "indexed": false,
          "internalType": "address[]",
          "name": "writeList",
          "type": "address[]"
        }
      ],
      "name": "UpdateWriteList",
      "type": "event"
    },
    {
      "inputs": [
        {
          "internalType": "bytes32",
          "name": "fileId",
          "type": "bytes32"
        },
        {
          "internalType": "string",
          "name": "name",
          "type": "string"
        },
        {
          "internalType": "string",
          "name": "readRule",
          "type": "string"
        },
        {
          "internalType": "address[]",
          "name": "writeList",
          "type": "address[]"
        },
        {
          "internalType": "uint256",
          "name": "threshold",
          "type": "uint256"
        }
      ],
      "name": "addFile",
      "outputs": [],
      "stateMutability": "nonpayable",
      "type": "function"
    },
    {
      "inputs": [
        {
          "internalType": "bytes32",
          "name": "proposalId",
          "type": "bytes32"
        }
      ],
      "name": "approveProposal",
      "outputs": [],
      "stateMutability": "nonpayable",
      "type": "function"
    },
    {
      "inputs": [
        {
          "internalType": "string",
          "name": "str1",
          "type": "string"
        },
        {
          "internalType": "string",
          "name": "str2",
          "type": "string"
        }
      ],
      "name": "compare",
      "outputs": [
        {
          "internalType": "bool",
          "name": "",
          "type": "bool"
        }
      ],
      "stateMutability": "pure",
      "type": "function"
    },
    {
      "inputs": [
        {
          "internalType": "address",
          "name": "",
          "type": "address"
        }
      ],
      "name": "dataOwner",
      "outputs": [
        {
          "internalType": "bool",
          "name": "",
          "type": "bool"
        }
      ],
      "stateMutability": "view",
      "type": "function"
    },
    {
      "inputs": [
        {
          "internalType": "bytes32",
          "name": "",
          "type": "bytes32"
        }
      ],
      "name": "files",
      "outputs": [
        {
          "internalType": "address",
          "name": "owner",
          "type": "address"
        },
        {
          "internalType": "string",
          "name": "name",
          "type": "string"
        },
        {
          "internalType": "string",
          "name": "readRule",
          "type": "string"
        },
        {
          "internalType": "uint256",
          "name": "threshold",
          "type": "uint256"
        }
      ],
      "stateMutability": "view",
      "type": "function"
    },
    {
      "inputs": [
        {
          "internalType": "address",
          "name": "user",
          "type": "address"
        },
        {
          "internalType": "address[]",
          "name": "list",
          "type": "address[]"
        }
      ],
      "name": "isInList",
      "outputs": [
        {
          "internalType": "bool",
          "name": "",
          "type": "bool"
        }
      ],
      "stateMutability": "pure",
      "type": "function"
    },
    {
      "inputs": [],
      "name": "owner",
      "outputs": [
        {
          "internalType": "address",
          "name": "",
          "type": "address"
        }
      ],
      "stateMutability": "view",
      "type": "function"
    },
    {
      "inputs": [],
      "name": "renounceOwnership",
      "outputs": [],
      "stateMutability": "nonpayable",
      "type": "function"
    },
    {
      "inputs": [
        {
          "internalType": "address",
          "name": "user",
          "type": "address"
        },
        {
          "internalType": "bool",
          "name": "isDataOwner",
          "type": "bool"
        }
      ],
      "name": "setDataOwner",
      "outputs": [],
      "stateMutability": "nonpayable",
      "type": "function"
    },
    {
      "inputs": [
        {
          "internalType": "bytes32",
          "name": "proposalId",
          "type": "bytes32"
        },
        {
          "internalType": "bytes32",
          "name": "fileId",
          "type": "bytes32"
        },
        {
          "internalType": "string",
          "name": "oldname",
          "type": "string"
        },
        {
          "internalType": "string",
          "name": "newname",
          "type": "string"
        }
      ],
      "name": "submitUpdateFileProposal",
      "outputs": [],
      "stateMutability": "nonpayable",
      "type": "function"
    },
    {
      "inputs": [
        {
          "internalType": "address",
          "name": "newOwner",
          "type": "address"
        }
      ],
      "name": "transferOwnership",
      "outputs": [],
      "stateMutability": "nonpayable",
      "type": "function"
    },
    {
      "inputs": [
        {
          "internalType": "bytes32",
          "name": "",
          "type": "bytes32"
        }
      ],
      "name": "writeProposal",
      "outputs": [
        {
          "internalType": "bytes32",
          "name": "fileId",
          "type": "bytes32"
        },
        {
          "internalType": "string",
          "name": "oldname",
          "type": "string"
        },
        {
          "internalType": "string",
          "name": "newname",
          "type": "string"
        }
      ],
      "stateMutability": "view",
      "type": "function"
    }
  ],
  "bytecode": "0x608060405234801561001057600080fd5b5061001a3361001f565b61006f565b600080546001600160a01b038381166001600160a01b0319831681178455604051919092169283917f8be0079c531659141344cd1fd0a4f28419497f9722a3daafe3b4186f6b6457e09190a35050565b61181b8061007e6000396000f3fe608060405234801561001057600080fd5b50600436106100b45760003560e01c80639503cf88116100715780639503cf881461014f57806398c9adff14610171578063a890b7be14610194578063f20b5b2c146101a7578063f2fde38b146101ba578063f8790b20146101cd57600080fd5b8063042a312a146100b95780633a96fdd7146100ce578063407acf57146100f65780634d627d8814610109578063715018a61461012c5780638da5cb5b14610134575b600080fd5b6100cc6100c7366004610f4b565b6101e0565b005b6100e16100dc3660046110df565b610324565b60405190151581526020015b60405180910390f35b6100cc610104366004611143565b61037e565b6100e16101173660046111e2565b60016020526000908152604090205460ff1681565b6100cc6107f0565b6000546040516001600160a01b0390911681526020016100ed565b61016261015d366004611204565b610804565b6040516100ed9392919061126d565b61018461017f366004611204565b610937565b6040516100ed94939291906112a2565b6100e16101a23660046112ea565b610a7a565b6100cc6101b5366004611204565b610adf565b6100cc6101c83660046111e2565b610d29565b6100cc6101db3660046113aa565b610d9f565b3360009081526001602052604090205460ff166102365760405162461bcd60e51b815260206004820152600f60248201526e27b7363c903230ba309037bbb732b960891b60448201526064015b60405180910390fd5b600088815260026020526040902080546001600160a01b0319163317815560010161026287898361146e565b5060008881526002602081905260409091200161028085878361146e565b506102be88848480806020026020016040519081016040528093929190818152602001838360200280828437600092019190915250610dd292505050565b600088815260026020526040908190206004018290555188907f3e0642ed2c9a291f129ce3736d8e28d75b6665fb730bb7c2116082e34ffd13ed906103129033908b908b908b908b908b908b908b90611558565b60405180910390a25050505050505050565b60008160405160200161033791906115e2565b604051602081830303815290604052805190602001208360405160200161035e91906115e2565b604051602081830303815290604052805190602001201490505b92915050565b60008484848460405160200161039794939291906115fe565b60405160208183030381529060405290506000816040516020016103bb91906115e2565b6040516020818303038152906040528051906020012090508781146104185760405162461bcd60e51b8152602060048201526013602482015272125b9d985b1a59081c1c9bdc1bdcd85b081251606a1b604482015260640161022d565b61049033600260008a815260200190815260200160002060030180548060200260200160405190810160405280929190818152602001828054801561048657602002820191906000526020600020905b81546001600160a01b03168152600190910190602001808311610468575b5050505050610a7a565b15156001146104d75760405162461bcd60e51b81526020600482015260136024820152722727903bb934ba32903832b936b4b9b9b4b7b760691b604482015260640161022d565b600087815260026020526040902060010180546105b291906104f8906113e6565b80601f0160208091040260200160405190810160405280929190818152602001828054610524906113e6565b80156105715780601f1061054657610100808354040283529160200191610571565b820191906000526020600020905b81548152906001019060200180831161055457829003601f168201915b505050505087878080601f01602080910402602001604051908101604052809392919081815260200183838082843760009201919091525061032492505050565b15156001146105fc5760405162461bcd60e51b81526020600482015260166024820152754e6f74206d61746368696e672066696c65206e616d6560501b604482015260640161022d565b61067233600360008a8152602001908152602001600020600301805480602002602001604051908101604052809291908181526020018280548015610486576020028201919060005260206000209081546001600160a01b03168152600190910190602001808311610468575050505050610a7a565b15156000036107e6576000888152600360208181526040832091820180546001818101835591855291842090910180546001600160a01b03191633179055918a9052888155016106c386888361146e565b5060008881526003602052604090206002016106e084868361146e565b5060008881526003602052604090819020805491518a917fae0ecc26408637002f5d1e9f1143095aef0d20bd60fe289a7df720f50a0217919161072d91600181019160029091019061169d565b60405180910390a36000888152600360208181526040808420805485526002835290842060040154938c9052908290520154106107e6576000888152600360209081526040808320805484526002928390529220600101916107909101826116cb565b5060008881526003602052604090819020805491518a917feb903a069c935d0f3438435136ca85414bc56c7b332afcd672fcd634ba5861c3916107dd91600181019160029091019061169d565b60405180910390a35b5050505050505050565b6107f8610e58565b6108026000610eb2565b565b60036020526000908152604090208054600182018054919291610826906113e6565b80601f0160208091040260200160405190810160405280929190818152602001828054610852906113e6565b801561089f5780601f106108745761010080835404028352916020019161089f565b820191906000526020600020905b81548152906001019060200180831161088257829003601f168201915b5050505050908060020180546108b4906113e6565b80601f01602080910402602001604051908101604052809291908181526020018280546108e0906113e6565b801561092d5780601f106109025761010080835404028352916020019161092d565b820191906000526020600020905b81548152906001019060200180831161091057829003601f168201915b5050505050905083565b600260205260009081526040902080546001820180546001600160a01b039092169291610963906113e6565b80601f016020809104026020016040519081016040528092919081815260200182805461098f906113e6565b80156109dc5780601f106109b1576101008083540402835291602001916109dc565b820191906000526020600020905b8154815290600101906020018083116109bf57829003601f168201915b5050505050908060020180546109f1906113e6565b80601f0160208091040260200160405190810160405280929190818152602001828054610a1d906113e6565b8015610a6a5780601f10610a3f57610100808354040283529160200191610a6a565b820191906000526020600020905b815481529060010190602001808311610a4d57829003601f168201915b5050505050908060040154905084565b6000805b8251811015610ad557836001600160a01b0316838281518110610aa357610aa36117a8565b60200260200101516001600160a01b031603610ac3576001915050610378565b80610acd816117be565b915050610a7e565b5060009392505050565b600081815260036020818152604080842054845260028252928390209091018054835181840281018401909452808452610b5a93339390929190830182828015610486576020028201919060005260206000209081546001600160a01b03168152600190910190602001808311610468575050505050610a7a565b1515600114610ba25760405162461bcd60e51b81526020600482015260146024820152732727903b37ba34b733903832b936b4b9b9b4b7b760611b604482015260640161022d565b610c183360036000848152602001908152602001600020600301805480602002602001604051908101604052809291908181526020018280548015610486576020028201919060005260206000209081546001600160a01b03168152600190910190602001808311610468575050505050610a7a565b15610c555760405162461bcd60e51b815260206004820152600d60248201526c105b1c9958591e481d9bdd1959609a1b604482015260640161022d565b600081815260036020818152604080842080840180546001810182558187528487200180546001600160a01b03191633179055905485526002835290842060040154938590529190525410610d2657600081815260036020908152604080832080548452600292839052922060010191610cd09101826116cb565b50600081815260036020526040908190208054915183917feb903a069c935d0f3438435136ca85414bc56c7b332afcd672fcd634ba5861c391610d1d91600181019160029091019061169d565b60405180910390a35b50565b610d31610e58565b6001600160a01b038116610d965760405162461bcd60e51b815260206004820152602660248201527f4f776e61626c653a206e6577206f776e657220697320746865207a65726f206160448201526564647265737360d01b606482015260840161022d565b610d2681610eb2565b610da7610e58565b6001600160a01b03919091166000908152600160205260409020805460ff1916911515919091179055565b60005b8151811015610e535760026000848152602001908152602001600020600301828281518110610e0657610e066117a8565b60209081029190910181015182546001810184556000938452919092200180546001600160a01b0319166001600160a01b0390921691909117905580610e4b816117be565b915050610dd5565b505050565b6000546001600160a01b031633146108025760405162461bcd60e51b815260206004820181905260248201527f4f776e61626c653a2063616c6c6572206973206e6f7420746865206f776e6572604482015260640161022d565b600080546001600160a01b038381166001600160a01b0319831681178455604051919092169283917f8be0079c531659141344cd1fd0a4f28419497f9722a3daafe3b4186f6b6457e09190a35050565b60008083601f840112610f1457600080fd5b50813567ffffffffffffffff811115610f2c57600080fd5b602083019150836020828501011115610f4457600080fd5b9250929050565b60008060008060008060008060a0898b031215610f6757600080fd5b88359750602089013567ffffffffffffffff80821115610f8657600080fd5b610f928c838d01610f02565b909950975060408b0135915080821115610fab57600080fd5b610fb78c838d01610f02565b909750955060608b0135915080821115610fd057600080fd5b818b0191508b601f830112610fe457600080fd5b813581811115610ff357600080fd5b8c60208260051b850101111561100857600080fd5b602083019550809450505050608089013590509295985092959890939650565b634e487b7160e01b600052604160045260246000fd5b604051601f8201601f1916810167ffffffffffffffff8111828210171561106757611067611028565b604052919050565b600082601f83011261108057600080fd5b813567ffffffffffffffff81111561109a5761109a611028565b6110ad601f8201601f191660200161103e565b8181528460208386010111156110c257600080fd5b816020850160208301376000918101602001919091529392505050565b600080604083850312156110f257600080fd5b823567ffffffffffffffff8082111561110a57600080fd5b6111168683870161106f565b9350602085013591508082111561112c57600080fd5b506111398582860161106f565b9150509250929050565b6000806000806000806080878903121561115c57600080fd5b8635955060208701359450604087013567ffffffffffffffff8082111561118257600080fd5b61118e8a838b01610f02565b909650945060608901359150808211156111a757600080fd5b506111b489828a01610f02565b979a9699509497509295939492505050565b80356001600160a01b03811681146111dd57600080fd5b919050565b6000602082840312156111f457600080fd5b6111fd826111c6565b9392505050565b60006020828403121561121657600080fd5b5035919050565b60005b83811015611238578181015183820152602001611220565b50506000910152565b6000815180845261125981602086016020860161121d565b601f01601f19169290920160200192915050565b8381526060602082015260006112866060830185611241565b82810360408401526112988185611241565b9695505050505050565b6001600160a01b03851681526080602082018190526000906112c690830186611241565b82810360408401526112d88186611241565b91505082606083015295945050505050565b600080604083850312156112fd57600080fd5b611306836111c6565b915060208084013567ffffffffffffffff8082111561132457600080fd5b818601915086601f83011261133857600080fd5b81358181111561134a5761134a611028565b8060051b915061135b84830161103e565b818152918301840191848101908984111561137557600080fd5b938501935b8385101561139a5761138b856111c6565b8252938501939085019061137a565b8096505050505050509250929050565b600080604083850312156113bd57600080fd5b6113c6836111c6565b9150602083013580151581146113db57600080fd5b809150509250929050565b600181811c908216806113fa57607f821691505b60208210810361141a57634e487b7160e01b600052602260045260246000fd5b50919050565b601f821115610e5357600081815260208120601f850160051c810160208610156114475750805b601f850160051c820191505b8181101561146657828155600101611453565b505050505050565b67ffffffffffffffff83111561148657611486611028565b61149a8361149483546113e6565b83611420565b6000601f8411600181146114ce57600085156114b65750838201355b600019600387901b1c1916600186901b178355611528565b600083815260209020601f19861690835b828110156114ff57868501358255602094850194600190920191016114df565b508682101561151c5760001960f88860031b161c19848701351681555b505060018560011b0183555b5050505050565b81835281816020850137506000828201602090810191909152601f909101601f19169091010190565b600060018060a01b03808b168352602060a08185015261157c60a085018b8d61152f565b848103604086015261158f818a8c61152f565b8581036060870152878152889150820160005b888110156115c757846115b4846111c6565b16825291830191908301906001016115a2565b50809450505050508260808301529998505050505050505050565b600082516115f481846020870161121d565b9190910192915050565b8385823760008482016000815283858237600093019283525090949350505050565b6000815461162d816113e6565b80855260206001838116801561164a576001811461166457611692565b60ff1985168884015283151560051b880183019550611692565b866000528260002060005b8581101561168a5781548a820186015290830190840161166f565b890184019650505b505050505092915050565b6040815260006116b06040830185611620565b82810360208401526116c28185611620565b95945050505050565b8181036116d6575050565b6116e082546113e6565b67ffffffffffffffff8111156116f8576116f8611028565b61170c8161170684546113e6565b84611420565b6000601f82116001811461174057600083156117285750848201545b600019600385901b1c1916600184901b178455611528565b600085815260209020601f19841690600086815260209020845b8381101561177a578286015482556001958601959091019060200161175a565b50858310156117985781850154600019600388901b60f8161c191681555b5050505050600190811b01905550565b634e487b7160e01b600052603260045260246000fd5b6000600182016117de57634e487b7160e01b600052601160045260246000fd5b506001019056fea264697066735822122099ae5aa79028377d0d2cf77cece7059232f5d0622804a062810ad6ac00dea6a264736f6c63430008130033",
  "linkReferences": {},
  "deployedLinkReferences": {}
}