{"contracts/FileAccessControl0.sol":{"FileAccessControl0":{"abi":[{"anonymous":false,"inputs":[{"indexed":true,"internalType":"bytes32","name":"fileId","type":"bytes32"},{"indexed":false,"internalType":"address","name":"owner","type":"address"},{"indexed":false,"internalType":"string","name":"readRule","type":"string"},{"indexed":false,"internalType":"address[]","name":"writeList","type":"address[]"}],"name":"AddFile","type":"event"},{"anonymous":false,"inputs":[{"indexed":true,"internalType":"address","name":"previousOwner","type":"address"},{"indexed":true,"internalType":"address","name":"newOwner","type":"address"}],"name":"OwnershipTransferred","type":"event"},{"anonymous":false,"inputs":[{"indexed":true,"internalType":"bytes32","name":"newFileId","type":"bytes32"},{"indexed":true,"internalType":"bytes32","name":"oldFileId","type":"bytes32"}],"name":"UpdateFile","type":"event"},{"anonymous":false,"inputs":[{"indexed":true,"internalType":"bytes32","name":"newFileId","type":"bytes32"},{"indexed":true,"internalType":"bytes32","name":"oldFileId","type":"bytes32"},{"indexed":false,"internalType":"string","name":"readRule","type":"string"}],"name":"UpdateReadRule","type":"event"},{"anonymous":false,"inputs":[{"indexed":true,"internalType":"bytes32","name":"newFileId","type":"bytes32"},{"indexed":true,"internalType":"bytes32","name":"oldFileId","type":"bytes32"},{"indexed":false,"internalType":"address[]","name":"writeList","type":"address[]"}],"name":"UpdateWriteList","type":"event"},{"inputs":[{"internalType":"bytes32","name":"fileId","type":"bytes32"},{"internalType":"string","name":"readRule","type":"string"},{"internalType":"address[]","name":"writeList","type":"address[]"}],"name":"addFile","outputs":[],"stateMutability":"nonpayable","type":"function"},{"inputs":[{"internalType":"address","name":"","type":"address"}],"name":"dataOwner","outputs":[{"internalType":"bool","name":"","type":"bool"}],"stateMutability":"view","type":"function"},{"inputs":[{"internalType":"bytes32","name":"","type":"bytes32"}],"name":"fileOwners","outputs":[{"internalType":"address","name":"","type":"address"}],"stateMutability":"view","type":"function"},{"inputs":[{"internalType":"bytes32","name":"","type":"bytes32"},{"internalType":"uint256","name":"","type":"uint256"}],"name":"fileWriters","outputs":[{"internalType":"address","name":"","type":"address"}],"stateMutability":"view","type":"function"},{"inputs":[{"internalType":"bytes32","name":"fileId","type":"bytes32"},{"internalType":"address","name":"user","type":"address"}],"name":"isWriter","outputs":[{"internalType":"bool","name":"","type":"bool"}],"stateMutability":"view","type":"function"},{"inputs":[],"name":"owner","outputs":[{"internalType":"address","name":"","type":"address"}],"stateMutability":"view","type":"function"},{"inputs":[{"internalType":"bytes32","name":"","type":"bytes32"}],"name":"readFileRule","outputs":[{"internalType":"string","name":"","type":"string"}],"stateMutability":"view","type":"function"},{"inputs":[],"name":"renounceOwnership","outputs":[],"stateMutability":"nonpayable","type":"function"},{"inputs":[{"internalType":"address","name":"user","type":"address"},{"internalType":"bool","name":"isDataOwner","type":"bool"}],"name":"setDataOwner","outputs":[],"stateMutability":"nonpayable","type":"function"},{"inputs":[{"internalType":"address","name":"newOwner","type":"address"}],"name":"transferOwnership","outputs":[],"stateMutability":"nonpayable","type":"function"},{"inputs":[{"internalType":"bytes32","name":"newFileId","type":"bytes32"},{"internalType":"bytes32","name":"oldFileId","type":"bytes32"}],"name":"updateFile","outputs":[],"stateMutability":"nonpayable","type":"function"},{"inputs":[{"internalType":"bytes32","name":"newFileId","type":"bytes32"},{"internalType":"bytes32","name":"oldFileId","type":"bytes32"},{"internalType":"string","name":"readRule","type":"string"}],"name":"updateReadRule","outputs":[],"stateMutability":"nonpayable","type":"function"},{"inputs":[{"internalType":"bytes32","name":"newFileId","type":"bytes32"},{"internalType":"bytes32","name":"oldFileId","type":"bytes32"},{"internalType":"address[]","name":"writeList","type":"address[]"}],"name":"updateWriteList","outputs":[],"stateMutability":"nonpayable","type":"function"}],"devdoc":{"kind":"dev","methods":{"owner()":{"details":"Returns the address of the current owner."},"renounceOwnership()":{"details":"Leaves the contract without owner. It will not be possible to call `onlyOwner` functions anymore. Can only be called by the current owner. NOTE: Renouncing ownership will leave the contract without an owner, thereby removing any functionality that is only available to the owner."},"transferOwnership(address)":{"details":"Transfers ownership of the contract to a new account (`newOwner`). Can only be called by the current owner."}},"version":1},"evm":{"bytecode":{"linkReferences":{},"object":"608060405234801561001057600080fd5b5061001a3361001f565b61006f565b600080546001600160a01b038381166001600160a01b0319831681178455604051919092169283917f8be0079c531659141344cd1fd0a4f28419497f9722a3daafe3b4186f6b6457e09190a35050565b6110208061007e6000396000f3fe608060405234801561001057600080fd5b50600436106100cf5760003560e01c8063947efe061161008c578063ece3678111610066578063ece36781146101be578063f2fde38b146101e7578063f32b4be7146101fa578063f8790b201461020d57600080fd5b8063947efe0614610178578063b301803d1461018b578063b50a54531461019e57600080fd5b806330c8b59b146100d457806337b519e1146101045780634d627d88146101195780636df2a1851461014c578063715018a61461015f5780638da5cb5b14610167575b600080fd5b6100e76100e2366004610993565b610220565b6040516001600160a01b0390911681526020015b60405180910390f35b6101176101123660046109fe565b610258565b005b61013c610127366004610a6d565b60016020526000908152604090205460ff1681565b60405190151581526020016100fb565b61011761015a366004610ad4565b61037f565b610117610488565b6000546001600160a01b03166100e7565b610117610186366004610993565b61049c565b61013c610199366004610b4e565b6105b6565b6101b16101ac366004610b7a565b61063e565b6040516100fb9190610b93565b6100e76101cc366004610b7a565b6002602052600090815260409020546001600160a01b031681565b6101176101f5366004610a6d565b6106d8565b610117610208366004610be1565b610751565b61011761021b366004610c28565b610836565b6004602052816000526040600020818154811061023c57600080fd5b6000918252602090912001546001600160a01b03169150829050565b60008381526002602052604090205483906001600160a01b031633146102995760405162461bcd60e51b815260040161029090610c64565b60405180910390fd5b600085815260026020908152604080832080546001600160a01b03191633179055868352600482529182902080548351818402810184019094528084526103239389939092919083018282801561031957602002820191906000526020600020905b81546001600160a01b031681526001909101906020018083116102fb575b5050505050610869565b600085815260036020526040902061033c838583610d2b565b5083857fce4df9af5a1313608b82c2e4ec2dc4985786c701e1251ed490a900478158941f8585604051610370929190610e15565b60405180910390a35050505050565b3360009081526001602052604090205460ff166103d05760405162461bcd60e51b815260206004820152600f60248201526e27b7363c903230ba309037bbb732b960891b6044820152606401610290565b600085815260026020908152604080832080546001600160a01b0319163317905560039091529020610403848683610d2b565b506104418583838080602002602001604051908101604052809392919081815260200183836020028082843760009201919091525061086992505050565b847f9ac322b75678092dca1935ded71e46c2af3d75d540c2797fd4a1eee39330ec1c3386868686604051610479959493929190610e78565b60405180910390a25050505050565b6104906108e9565b61049a6000610943565b565b60008181526002602052604090205481906001600160a01b031633146104d45760405162461bcd60e51b815260040161029090610c64565b600083815260026020908152604080832080546001600160a01b0319163317905584835260039091528082208583529120906105109082610ebc565b506105848360046000858152602001908152602001600020805480602002602001604051908101604052809291908181526020018280548015610319576020028201919060005260206000209081546001600160a01b031681526001909101906020018083116102fb575050505050610869565b604051829084907f4e9dfd3df2c258f379b0e8c984deb7db0127eb702043af8ba1ccad62a2df046890600090a3505050565b6000805b60008481526004602052604090205481101561063257600084815260046020526040902080546001600160a01b0385169190839081106105fc576105fc610f99565b6000918252602090912001546001600160a01b031603610620576001915050610638565b8061062a81610faf565b9150506105ba565b50600090505b92915050565b6003602052600090815260409020805461065790610ca3565b80601f016020809104026020016040519081016040528092919081815260200182805461068390610ca3565b80156106d05780601f106106a5576101008083540402835291602001916106d0565b820191906000526020600020905b8154815290600101906020018083116106b357829003601f168201915b505050505081565b6106e06108e9565b6001600160a01b0381166107455760405162461bcd60e51b815260206004820152602660248201527f4f776e61626c653a206e6577206f776e657220697320746865207a65726f206160448201526564647265737360d01b6064820152608401610290565b61074e81610943565b50565b60008381526002602052604090205483906001600160a01b031633146107895760405162461bcd60e51b815260040161029090610c64565b600085815260026020908152604080832080546001600160a01b0319163317905586835260039091528082208783529120906107c59082610ebc565b506108038584848080602002602001604051908101604052809392919081815260200183836020028082843760009201919091525061086992505050565b83857ffe6cb463025b00c7f0fa74f5cc8c6710ba0b337683fa689a4f7b79cca249de468585604051610370929190610fd6565b61083e6108e9565b6001600160a01b03919091166000908152600160205260409020805460ff1916911515919091179055565b60005b81518110156108e4576000838152600460205260409020825183908390811061089757610897610f99565b60209081029190910181015182546001810184556000938452919092200180546001600160a01b0319166001600160a01b03909216919091179055806108dc81610faf565b91505061086c565b505050565b6000546001600160a01b0316331461049a5760405162461bcd60e51b815260206004820181905260248201527f4f776e61626c653a2063616c6c6572206973206e6f7420746865206f776e65726044820152606401610290565b600080546001600160a01b038381166001600160a01b0319831681178455604051919092169283917f8be0079c531659141344cd1fd0a4f28419497f9722a3daafe3b4186f6b6457e09190a35050565b600080604083850312156109a657600080fd5b50508035926020909101359150565b60008083601f8401126109c757600080fd5b50813567ffffffffffffffff8111156109df57600080fd5b6020830191508360208285010111156109f757600080fd5b9250929050565b60008060008060608587031215610a1457600080fd5b8435935060208501359250604085013567ffffffffffffffff811115610a3957600080fd5b610a45878288016109b5565b95989497509550505050565b80356001600160a01b0381168114610a6857600080fd5b919050565b600060208284031215610a7f57600080fd5b610a8882610a51565b9392505050565b60008083601f840112610aa157600080fd5b50813567ffffffffffffffff811115610ab957600080fd5b6020830191508360208260051b85010111156109f757600080fd5b600080600080600060608688031215610aec57600080fd5b85359450602086013567ffffffffffffffff80821115610b0b57600080fd5b610b1789838a016109b5565b90965094506040880135915080821115610b3057600080fd5b50610b3d88828901610a8f565b969995985093965092949392505050565b60008060408385031215610b6157600080fd5b82359150610b7160208401610a51565b90509250929050565b600060208284031215610b8c57600080fd5b5035919050565b600060208083528351808285015260005b81811015610bc057858101830151858201604001528201610ba4565b506000604082860101526040601f19601f8301168501019250505092915050565b60008060008060608587031215610bf757600080fd5b8435935060208501359250604085013567ffffffffffffffff811115610c1c57600080fd5b610a4587828801610a8f565b60008060408385031215610c3b57600080fd5b610c4483610a51565b915060208301358015158114610c5957600080fd5b809150509250929050565b6020808252600f908201526e27b7363c903334b6329037bbb732b960891b604082015260600190565b634e487b7160e01b600052604160045260246000fd5b600181811c90821680610cb757607f821691505b602082108103610cd757634e487b7160e01b600052602260045260246000fd5b50919050565b601f8211156108e457600081815260208120601f850160051c81016020861015610d045750805b601f850160051c820191505b81811015610d2357828155600101610d10565b505050505050565b67ffffffffffffffff831115610d4357610d43610c8d565b610d5783610d518354610ca3565b83610cdd565b6000601f841160018114610d8b5760008515610d735750838201355b600019600387901b1c1916600186901b178355610de5565b600083815260209020601f19861690835b82811015610dbc5786850135825560209485019460019092019101610d9c565b5086821015610dd95760001960f88860031b161c19848701351681555b505060018560011b0183555b5050505050565b81835281816020850137506000828201602090810191909152601f909101601f19169091010190565b602081526000610e29602083018486610dec565b949350505050565b8183526000602080850194508260005b85811015610e6d576001600160a01b03610e5a83610a51565b1687529582019590820190600101610e41565b509495945050505050565b6001600160a01b0386168152606060208201819052600090610e9d9083018688610dec565b8281036040840152610eb0818587610e31565b98975050505050505050565b818103610ec7575050565b610ed18254610ca3565b67ffffffffffffffff811115610ee957610ee9610c8d565b610efd81610ef78454610ca3565b84610cdd565b6000601f821160018114610f315760008315610f195750848201545b600019600385901b1c1916600184901b178455610de5565b600085815260209020601f19841690600086815260209020845b83811015610f6b5782860154825560019586019590910190602001610f4b565b5085831015610f895781850154600019600388901b60f8161c191681555b5050505050600190811b01905550565b634e487b7160e01b600052603260045260246000fd5b600060018201610fcf57634e487b7160e01b600052601160045260246000fd5b5060010190565b602081526000610e29602083018486610e3156fea26469706673582212209dc9836daebdf7c9c2746d85a9be18f2467cc5e612d89e647b5d85ca3b61fdaf64736f6c63430008130033","opcodes":"PUSH1 0x80 PUSH1 0x40 MSTORE CALLVALUE DUP1 ISZERO PUSH2 0x10 JUMPI PUSH1 0x0 DUP1 REVERT JUMPDEST POP PUSH2 0x1A CALLER PUSH2 0x1F JUMP JUMPDEST PUSH2 0x6F JUMP JUMPDEST PUSH1 0x0 DUP1 SLOAD PUSH1 0x1 PUSH1 0x1 PUSH1 0xA0 SHL SUB DUP4 DUP2 AND PUSH1 0x1 PUSH1 0x1 PUSH1 0xA0 SHL SUB NOT DUP4 AND DUP2 OR DUP5 SSTORE PUSH1 0x40 MLOAD SWAP2 SWAP1 SWAP3 AND SWAP3 DUP4 SWAP2 PUSH32 0x8BE0079C531659141344CD1FD0A4F28419497F9722A3DAAFE3B4186F6B6457E0 SWAP2 SWAP1 LOG3 POP POP JUMP JUMPDEST PUSH2 0x1020 DUP1 PUSH2 0x7E PUSH1 0x0 CODECOPY PUSH1 0x0 RETURN INVALID PUSH1 0x80 PUSH1 0x40 MSTORE CALLVALUE DUP1 ISZERO PUSH2 0x10 JUMPI PUSH1 0x0 DUP1 REVERT JUMPDEST POP PUSH1 0x4 CALLDATASIZE LT PUSH2 0xCF JUMPI PUSH1 0x0 CALLDATALOAD PUSH1 0xE0 SHR DUP1 PUSH4 0x947EFE06 GT PUSH2 0x8C JUMPI DUP1 PUSH4 0xECE36781 GT PUSH2 0x66 JUMPI DUP1 PUSH4 0xECE36781 EQ PUSH2 0x1BE JUMPI DUP1 PUSH4 0xF2FDE38B EQ PUSH2 0x1E7 JUMPI DUP1 PUSH4 0xF32B4BE7 EQ PUSH2 0x1FA JUMPI DUP1 PUSH4 0xF8790B20 EQ PUSH2 0x20D JUMPI PUSH1 0x0 DUP1 REVERT JUMPDEST DUP1 PUSH4 0x947EFE06 EQ PUSH2 0x178 JUMPI DUP1 PUSH4 0xB301803D EQ PUSH2 0x18B JUMPI DUP1 PUSH4 0xB50A5453 EQ PUSH2 0x19E JUMPI PUSH1 0x0 DUP1 REVERT JUMPDEST DUP1 PUSH4 0x30C8B59B EQ PUSH2 0xD4 JUMPI DUP1 PUSH4 0x37B519E1 EQ PUSH2 0x104 JUMPI DUP1 PUSH4 0x4D627D88 EQ PUSH2 0x119 JUMPI DUP1 PUSH4 0x6DF2A185 EQ PUSH2 0x14C JUMPI DUP1 PUSH4 0x715018A6 EQ PUSH2 0x15F JUMPI DUP1 PUSH4 0x8DA5CB5B EQ PUSH2 0x167 JUMPI JUMPDEST PUSH1 0x0 DUP1 REVERT JUMPDEST PUSH2 0xE7 PUSH2 0xE2 CALLDATASIZE PUSH1 0x4 PUSH2 0x993 JUMP JUMPDEST PUSH2 0x220 JUMP JUMPDEST PUSH1 0x40 MLOAD PUSH1 0x1 PUSH1 0x1 PUSH1 0xA0 SHL SUB SWAP1 SWAP2 AND DUP2 MSTORE PUSH1 0x20 ADD JUMPDEST PUSH1 0x40 MLOAD DUP1 SWAP2 SUB SWAP1 RETURN JUMPDEST PUSH2 0x117 PUSH2 0x112 CALLDATASIZE PUSH1 0x4 PUSH2 0x9FE JUMP JUMPDEST PUSH2 0x258 JUMP JUMPDEST STOP JUMPDEST PUSH2 0x13C PUSH2 0x127 CALLDATASIZE PUSH1 0x4 PUSH2 0xA6D JUMP JUMPDEST PUSH1 0x1 PUSH1 0x20 MSTORE PUSH1 0x0 SWAP1 DUP2 MSTORE PUSH1 0x40 SWAP1 KECCAK256 SLOAD PUSH1 0xFF AND DUP2 JUMP JUMPDEST PUSH1 0x40 MLOAD SWAP1 ISZERO ISZERO DUP2 MSTORE PUSH1 0x20 ADD PUSH2 0xFB JUMP JUMPDEST PUSH2 0x117 PUSH2 0x15A CALLDATASIZE PUSH1 0x4 PUSH2 0xAD4 JUMP JUMPDEST PUSH2 0x37F JUMP JUMPDEST PUSH2 0x117 PUSH2 0x488 JUMP JUMPDEST PUSH1 0x0 SLOAD PUSH1 0x1 PUSH1 0x1 PUSH1 0xA0 SHL SUB AND PUSH2 0xE7 JUMP JUMPDEST PUSH2 0x117 PUSH2 0x186 CALLDATASIZE PUSH1 0x4 PUSH2 0x993 JUMP JUMPDEST PUSH2 0x49C JUMP JUMPDEST PUSH2 0x13C PUSH2 0x199 CALLDATASIZE PUSH1 0x4 PUSH2 0xB4E JUMP JUMPDEST PUSH2 0x5B6 JUMP JUMPDEST PUSH2 0x1B1 PUSH2 0x1AC CALLDATASIZE PUSH1 0x4 PUSH2 0xB7A JUMP JUMPDEST PUSH2 0x63E JUMP JUMPDEST PUSH1 0x40 MLOAD PUSH2 0xFB SWAP2 SWAP1 PUSH2 0xB93 JUMP JUMPDEST PUSH2 0xE7 PUSH2 0x1CC CALLDATASIZE PUSH1 0x4 PUSH2 0xB7A JUMP JUMPDEST PUSH1 0x2 PUSH1 0x20 MSTORE PUSH1 0x0 SWAP1 DUP2 MSTORE PUSH1 0x40 SWAP1 KECCAK256 SLOAD PUSH1 0x1 PUSH1 0x1 PUSH1 0xA0 SHL SUB AND DUP2 JUMP JUMPDEST PUSH2 0x117 PUSH2 0x1F5 CALLDATASIZE PUSH1 0x4 PUSH2 0xA6D JUMP JUMPDEST PUSH2 0x6D8 JUMP JUMPDEST PUSH2 0x117 PUSH2 0x208 CALLDATASIZE PUSH1 0x4 PUSH2 0xBE1 JUMP JUMPDEST PUSH2 0x751 JUMP JUMPDEST PUSH2 0x117 PUSH2 0x21B CALLDATASIZE PUSH1 0x4 PUSH2 0xC28 JUMP JUMPDEST PUSH2 0x836 JUMP JUMPDEST PUSH1 0x4 PUSH1 0x20 MSTORE DUP2 PUSH1 0x0 MSTORE PUSH1 0x40 PUSH1 0x0 KECCAK256 DUP2 DUP2 SLOAD DUP2 LT PUSH2 0x23C JUMPI PUSH1 0x0 DUP1 REVERT JUMPDEST PUSH1 0x0 SWAP2 DUP3 MSTORE PUSH1 0x20 SWAP1 SWAP2 KECCAK256 ADD SLOAD PUSH1 0x1 PUSH1 0x1 PUSH1 0xA0 SHL SUB AND SWAP2 POP DUP3 SWAP1 POP JUMP JUMPDEST PUSH1 0x0 DUP4 DUP2 MSTORE PUSH1 0x2 PUSH1 0x20 MSTORE PUSH1 0x40 SWAP1 KECCAK256 SLOAD DUP4 SWAP1 PUSH1 0x1 PUSH1 0x1 PUSH1 0xA0 SHL SUB AND CALLER EQ PUSH2 0x299 JUMPI PUSH1 0x40 MLOAD PUSH3 0x461BCD PUSH1 0xE5 SHL DUP2 MSTORE PUSH1 0x4 ADD PUSH2 0x290 SWAP1 PUSH2 0xC64 JUMP JUMPDEST PUSH1 0x40 MLOAD DUP1 SWAP2 SUB SWAP1 REVERT JUMPDEST PUSH1 0x0 DUP6 DUP2 MSTORE PUSH1 0x2 PUSH1 0x20 SWAP1 DUP2 MSTORE PUSH1 0x40 DUP1 DUP4 KECCAK256 DUP1 SLOAD PUSH1 0x1 PUSH1 0x1 PUSH1 0xA0 SHL SUB NOT AND CALLER OR SWAP1 SSTORE DUP7 DUP4 MSTORE PUSH1 0x4 DUP3 MSTORE SWAP2 DUP3 SWAP1 KECCAK256 DUP1 SLOAD DUP4 MLOAD DUP2 DUP5 MUL DUP2 ADD DUP5 ADD SWAP1 SWAP5 MSTORE DUP1 DUP5 MSTORE PUSH2 0x323 SWAP4 DUP10 SWAP4 SWAP1 SWAP3 SWAP2 SWAP1 DUP4 ADD DUP3 DUP3 DUP1 ISZERO PUSH2 0x319 JUMPI PUSH1 0x20 MUL DUP3 ADD SWAP2 SWAP1 PUSH1 0x0 MSTORE PUSH1 0x20 PUSH1 0x0 KECCAK256 SWAP1 JUMPDEST DUP2 SLOAD PUSH1 0x1 PUSH1 0x1 PUSH1 0xA0 SHL SUB AND DUP2 MSTORE PUSH1 0x1 SWAP1 SWAP2 ADD SWAP1 PUSH1 0x20 ADD DUP1 DUP4 GT PUSH2 0x2FB JUMPI JUMPDEST POP POP POP POP POP PUSH2 0x869 JUMP JUMPDEST PUSH1 0x0 DUP6 DUP2 MSTORE PUSH1 0x3 PUSH1 0x20 MSTORE PUSH1 0x40 SWAP1 KECCAK256 PUSH2 0x33C DUP4 DUP6 DUP4 PUSH2 0xD2B JUMP JUMPDEST POP DUP4 DUP6 PUSH32 0xCE4DF9AF5A1313608B82C2E4EC2DC4985786C701E1251ED490A900478158941F DUP6 DUP6 PUSH1 0x40 MLOAD PUSH2 0x370 SWAP3 SWAP2 SWAP1 PUSH2 0xE15 JUMP JUMPDEST PUSH1 0x40 MLOAD DUP1 SWAP2 SUB SWAP1 LOG3 POP POP POP POP POP JUMP JUMPDEST CALLER PUSH1 0x0 SWAP1 DUP2 MSTORE PUSH1 0x1 PUSH1 0x20 MSTORE PUSH1 0x40 SWAP1 KECCAK256 SLOAD PUSH1 0xFF AND PUSH2 0x3D0 JUMPI PUSH1 0x40 MLOAD PUSH3 0x461BCD PUSH1 0xE5 SHL DUP2 MSTORE PUSH1 0x20 PUSH1 0x4 DUP3 ADD MSTORE PUSH1 0xF PUSH1 0x24 DUP3 ADD MSTORE PUSH15 0x27B7363C903230BA309037BBB732B9 PUSH1 0x89 SHL PUSH1 0x44 DUP3 ADD MSTORE PUSH1 0x64 ADD PUSH2 0x290 JUMP JUMPDEST PUSH1 0x0 DUP6 DUP2 MSTORE PUSH1 0x2 PUSH1 0x20 SWAP1 DUP2 MSTORE PUSH1 0x40 DUP1 DUP4 KECCAK256 DUP1 SLOAD PUSH1 0x1 PUSH1 0x1 PUSH1 0xA0 SHL SUB NOT AND CALLER OR SWAP1 SSTORE PUSH1 0x3 SWAP1 SWAP2 MSTORE SWAP1 KECCAK256 PUSH2 0x403 DUP5 DUP7 DUP4 PUSH2 0xD2B JUMP JUMPDEST POP PUSH2 0x441 DUP6 DUP4 DUP4 DUP1 DUP1 PUSH1 0x20 MUL PUSH1 0x20 ADD PUSH1 0x40 MLOAD SWAP1 DUP2 ADD PUSH1 0x40 MSTORE DUP1 SWAP4 SWAP3 SWAP2 SWAP1 DUP2 DUP2 MSTORE PUSH1 0x20 ADD DUP4 DUP4 PUSH1 0x20 MUL DUP1 DUP3 DUP5 CALLDATACOPY PUSH1 0x0 SWAP3 ADD SWAP2 SWAP1 SWAP2 MSTORE POP PUSH2 0x869 SWAP3 POP POP POP JUMP JUMPDEST DUP5 PUSH32 0x9AC322B75678092DCA1935DED71E46C2AF3D75D540C2797FD4A1EEE39330EC1C CALLER DUP7 DUP7 DUP7 DUP7 PUSH1 0x40 MLOAD PUSH2 0x479 SWAP6 SWAP5 SWAP4 SWAP3 SWAP2 SWAP1 PUSH2 0xE78 JUMP JUMPDEST PUSH1 0x40 MLOAD DUP1 SWAP2 SUB SWAP1 LOG2 POP POP POP POP POP JUMP JUMPDEST PUSH2 0x490 PUSH2 0x8E9 JUMP JUMPDEST PUSH2 0x49A PUSH1 0x0 PUSH2 0x943 JUMP JUMPDEST JUMP JUMPDEST PUSH1 0x0 DUP2 DUP2 MSTORE PUSH1 0x2 PUSH1 0x20 MSTORE PUSH1 0x40 SWAP1 KECCAK256 SLOAD DUP2 SWAP1 PUSH1 0x1 PUSH1 0x1 PUSH1 0xA0 SHL SUB AND CALLER EQ PUSH2 0x4D4 JUMPI PUSH1 0x40 MLOAD PUSH3 0x461BCD PUSH1 0xE5 SHL DUP2 MSTORE PUSH1 0x4 ADD PUSH2 0x290 SWAP1 PUSH2 0xC64 JUMP JUMPDEST PUSH1 0x0 DUP4 DUP2 MSTORE PUSH1 0x2 PUSH1 0x20 SWAP1 DUP2 MSTORE PUSH1 0x40 DUP1 DUP4 KECCAK256 DUP1 SLOAD PUSH1 0x1 PUSH1 0x1 PUSH1 0xA0 SHL SUB NOT AND CALLER OR SWAP1 SSTORE DUP5 DUP4 MSTORE PUSH1 0x3 SWAP1 SWAP2 MSTORE DUP1 DUP3 KECCAK256 DUP6 DUP4 MSTORE SWAP2 KECCAK256 SWAP1 PUSH2 0x510 SWAP1 DUP3 PUSH2 0xEBC JUMP JUMPDEST POP PUSH2 0x584 DUP4 PUSH1 0x4 PUSH1 0x0 DUP6 DUP2 MSTORE PUSH1 0x20 ADD SWAP1 DUP2 MSTORE PUSH1 0x20 ADD PUSH1 0x0 KECCAK256 DUP1 SLOAD DUP1 PUSH1 0x20 MUL PUSH1 0x20 ADD PUSH1 0x40 MLOAD SWAP1 DUP2 ADD PUSH1 0x40 MSTORE DUP1 SWAP3 SWAP2 SWAP1 DUP2 DUP2 MSTORE PUSH1 0x20 ADD DUP3 DUP1 SLOAD DUP1 ISZERO PUSH2 0x319 JUMPI PUSH1 0x20 MUL DUP3 ADD SWAP2 SWAP1 PUSH1 0x0 MSTORE PUSH1 0x20 PUSH1 0x0 KECCAK256 SWAP1 DUP2 SLOAD PUSH1 0x1 PUSH1 0x1 PUSH1 0xA0 SHL SUB AND DUP2 MSTORE PUSH1 0x1 SWAP1 SWAP2 ADD SWAP1 PUSH1 0x20 ADD DUP1 DUP4 GT PUSH2 0x2FB JUMPI POP POP POP POP POP PUSH2 0x869 JUMP JUMPDEST PUSH1 0x40 MLOAD DUP3 SWAP1 DUP5 SWAP1 PUSH32 0x4E9DFD3DF2C258F379B0E8C984DEB7DB0127EB702043AF8BA1CCAD62A2DF0468 SWAP1 PUSH1 0x0 SWAP1 LOG3 POP POP POP JUMP JUMPDEST PUSH1 0x0 DUP1 JUMPDEST PUSH1 0x0 DUP5 DUP2 MSTORE PUSH1 0x4 PUSH1 0x20 MSTORE PUSH1 0x40 SWAP1 KECCAK256 SLOAD DUP2 LT ISZERO PUSH2 0x632 JUMPI PUSH1 0x0 DUP5 DUP2 MSTORE PUSH1 0x4 PUSH1 0x20 MSTORE PUSH1 0x40 SWAP1 KECCAK256 DUP1 SLOAD PUSH1 0x1 PUSH1 0x1 PUSH1 0xA0 SHL SUB DUP6 AND SWAP2 SWAP1 DUP4 SWAP1 DUP2 LT PUSH2 0x5FC JUMPI PUSH2 0x5FC PUSH2 0xF99 JUMP JUMPDEST PUSH1 0x0 SWAP2 DUP3 MSTORE PUSH1 0x20 SWAP1 SWAP2 KECCAK256 ADD SLOAD PUSH1 0x1 PUSH1 0x1 PUSH1 0xA0 SHL SUB AND SUB PUSH2 0x620 JUMPI PUSH1 0x1 SWAP2 POP POP PUSH2 0x638 JUMP JUMPDEST DUP1 PUSH2 0x62A DUP2 PUSH2 0xFAF JUMP JUMPDEST SWAP2 POP POP PUSH2 0x5BA JUMP JUMPDEST POP PUSH1 0x0 SWAP1 POP JUMPDEST SWAP3 SWAP2 POP POP JUMP JUMPDEST PUSH1 0x3 PUSH1 0x20 MSTORE PUSH1 0x0 SWAP1 DUP2 MSTORE PUSH1 0x40 SWAP1 KECCAK256 DUP1 SLOAD PUSH2 0x657 SWAP1 PUSH2 0xCA3 JUMP JUMPDEST DUP1 PUSH1 0x1F ADD PUSH1 0x20 DUP1 SWAP2 DIV MUL PUSH1 0x20 ADD PUSH1 0x40 MLOAD SWAP1 DUP2 ADD PUSH1 0x40 MSTORE DUP1 SWAP3 SWAP2 SWAP1 DUP2 DUP2 MSTORE PUSH1 0x20 ADD DUP3 DUP1 SLOAD PUSH2 0x683 SWAP1 PUSH2 0xCA3 JUMP JUMPDEST DUP1 ISZERO PUSH2 0x6D0 JUMPI DUP1 PUSH1 0x1F LT PUSH2 0x6A5 JUMPI PUSH2 0x100 DUP1 DUP4 SLOAD DIV MUL DUP4 MSTORE SWAP2 PUSH1 0x20 ADD SWAP2 PUSH2 0x6D0 JUMP JUMPDEST DUP3 ADD SWAP2 SWAP1 PUSH1 0x0 MSTORE PUSH1 0x20 PUSH1 0x0 KECCAK256 SWAP1 JUMPDEST DUP2 SLOAD DUP2 MSTORE SWAP1 PUSH1 0x1 ADD SWAP1 PUSH1 0x20 ADD DUP1 DUP4 GT PUSH2 0x6B3 JUMPI DUP3 SWAP1 SUB PUSH1 0x1F AND DUP3 ADD SWAP2 JUMPDEST POP POP POP POP POP DUP2 JUMP JUMPDEST PUSH2 0x6E0 PUSH2 0x8E9 JUMP JUMPDEST PUSH1 0x1 PUSH1 0x1 PUSH1 0xA0 SHL SUB DUP2 AND PUSH2 0x745 JUMPI PUSH1 0x40 MLOAD PUSH3 0x461BCD PUSH1 0xE5 SHL DUP2 MSTORE PUSH1 0x20 PUSH1 0x4 DUP3 ADD MSTORE PUSH1 0x26 PUSH1 0x24 DUP3 ADD MSTORE PUSH32 0x4F776E61626C653A206E6577206F776E657220697320746865207A65726F2061 PUSH1 0x44 DUP3 ADD MSTORE PUSH6 0x646472657373 PUSH1 0xD0 SHL PUSH1 0x64 DUP3 ADD MSTORE PUSH1 0x84 ADD PUSH2 0x290 JUMP JUMPDEST PUSH2 0x74E DUP2 PUSH2 0x943 JUMP JUMPDEST POP JUMP JUMPDEST PUSH1 0x0 DUP4 DUP2 MSTORE PUSH1 0x2 PUSH1 0x20 MSTORE PUSH1 0x40 SWAP1 KECCAK256 SLOAD DUP4 SWAP1 PUSH1 0x1 PUSH1 0x1 PUSH1 0xA0 SHL SUB AND CALLER EQ PUSH2 0x789 JUMPI PUSH1 0x40 MLOAD PUSH3 0x461BCD PUSH1 0xE5 SHL DUP2 MSTORE PUSH1 0x4 ADD PUSH2 0x290 SWAP1 PUSH2 0xC64 JUMP JUMPDEST PUSH1 0x0 DUP6 DUP2 MSTORE PUSH1 0x2 PUSH1 0x20 SWAP1 DUP2 MSTORE PUSH1 0x40 DUP1 DUP4 KECCAK256 DUP1 SLOAD PUSH1 0x1 PUSH1 0x1 PUSH1 0xA0 SHL SUB NOT AND CALLER OR SWAP1 SSTORE DUP7 DUP4 MSTORE PUSH1 0x3 SWAP1 SWAP2 MSTORE DUP1 DUP3 KECCAK256 DUP8 DUP4 MSTORE SWAP2 KECCAK256 SWAP1 PUSH2 0x7C5 SWAP1 DUP3 PUSH2 0xEBC JUMP JUMPDEST POP PUSH2 0x803 DUP6 DUP5 DUP5 DUP1 DUP1 PUSH1 0x20 MUL PUSH1 0x20 ADD PUSH1 0x40 MLOAD SWAP1 DUP2 ADD PUSH1 0x40 MSTORE DUP1 SWAP4 SWAP3 SWAP2 SWAP1 DUP2 DUP2 MSTORE PUSH1 0x20 ADD DUP4 DUP4 PUSH1 0x20 MUL DUP1 DUP3 DUP5 CALLDATACOPY PUSH1 0x0 SWAP3 ADD SWAP2 SWAP1 SWAP2 MSTORE POP PUSH2 0x869 SWAP3 POP POP POP JUMP JUMPDEST DUP4 DUP6 PUSH32 0xFE6CB463025B00C7F0FA74F5CC8C6710BA0B337683FA689A4F7B79CCA249DE46 DUP6 DUP6 PUSH1 0x40 MLOAD PUSH2 0x370 SWAP3 SWAP2 SWAP1 PUSH2 0xFD6 JUMP JUMPDEST PUSH2 0x83E PUSH2 0x8E9 JUMP JUMPDEST PUSH1 0x1 PUSH1 0x1 PUSH1 0xA0 SHL SUB SWAP2 SWAP1 SWAP2 AND PUSH1 0x0 SWAP1 DUP2 MSTORE PUSH1 0x1 PUSH1 0x20 MSTORE PUSH1 0x40 SWAP1 KECCAK256 DUP1 SLOAD PUSH1 0xFF NOT AND SWAP2 ISZERO ISZERO SWAP2 SWAP1 SWAP2 OR SWAP1 SSTORE JUMP JUMPDEST PUSH1 0x0 JUMPDEST DUP2 MLOAD DUP2 LT ISZERO PUSH2 0x8E4 JUMPI PUSH1 0x0 DUP4 DUP2 MSTORE PUSH1 0x4 PUSH1 0x20 MSTORE PUSH1 0x40 SWAP1 KECCAK256 DUP3 MLOAD DUP4 SWAP1 DUP4 SWAP1 DUP2 LT PUSH2 0x897 JUMPI PUSH2 0x897 PUSH2 0xF99 JUMP JUMPDEST PUSH1 0x20 SWAP1 DUP2 MUL SWAP2 SWAP1 SWAP2 ADD DUP2 ADD MLOAD DUP3 SLOAD PUSH1 0x1 DUP2 ADD DUP5 SSTORE PUSH1 0x0 SWAP4 DUP5 MSTORE SWAP2 SWAP1 SWAP3 KECCAK256 ADD DUP1 SLOAD PUSH1 0x1 PUSH1 0x1 PUSH1 0xA0 SHL SUB NOT AND PUSH1 0x1 PUSH1 0x1 PUSH1 0xA0 SHL SUB SWAP1 SWAP3 AND SWAP2 SWAP1 SWAP2 OR SWAP1 SSTORE DUP1 PUSH2 0x8DC DUP2 PUSH2 0xFAF JUMP JUMPDEST SWAP2 POP POP PUSH2 0x86C JUMP JUMPDEST POP POP POP JUMP JUMPDEST PUSH1 0x0 SLOAD PUSH1 0x1 PUSH1 0x1 PUSH1 0xA0 SHL SUB AND CALLER EQ PUSH2 0x49A JUMPI PUSH1 0x40 MLOAD PUSH3 0x461BCD PUSH1 0xE5 SHL DUP2 MSTORE PUSH1 0x20 PUSH1 0x4 DUP3 ADD DUP2 SWAP1 MSTORE PUSH1 0x24 DUP3 ADD MSTORE PUSH32 0x4F776E61626C653A2063616C6C6572206973206E6F7420746865206F776E6572 PUSH1 0x44 DUP3 ADD MSTORE PUSH1 0x64 ADD PUSH2 0x290 JUMP JUMPDEST PUSH1 0x0 DUP1 SLOAD PUSH1 0x1 PUSH1 0x1 PUSH1 0xA0 SHL SUB DUP4 DUP2 AND PUSH1 0x1 PUSH1 0x1 PUSH1 0xA0 SHL SUB NOT DUP4 AND DUP2 OR DUP5 SSTORE PUSH1 0x40 MLOAD SWAP2 SWAP1 SWAP3 AND SWAP3 DUP4 SWAP2 PUSH32 0x8BE0079C531659141344CD1FD0A4F28419497F9722A3DAAFE3B4186F6B6457E0 SWAP2 SWAP1 LOG3 POP POP JUMP JUMPDEST PUSH1 0x0 DUP1 PUSH1 0x40 DUP4 DUP6 SUB SLT ISZERO PUSH2 0x9A6 JUMPI PUSH1 0x0 DUP1 REVERT JUMPDEST POP POP DUP1 CALLDATALOAD SWAP3 PUSH1 0x20 SWAP1 SWAP2 ADD CALLDATALOAD SWAP2 POP JUMP JUMPDEST PUSH1 0x0 DUP1 DUP4 PUSH1 0x1F DUP5 ADD SLT PUSH2 0x9C7 JUMPI PUSH1 0x0 DUP1 REVERT JUMPDEST POP DUP2 CALLDATALOAD PUSH8 0xFFFFFFFFFFFFFFFF DUP2 GT ISZERO PUSH2 0x9DF JUMPI PUSH1 0x0 DUP1 REVERT JUMPDEST PUSH1 0x20 DUP4 ADD SWAP2 POP DUP4 PUSH1 0x20 DUP3 DUP6 ADD ADD GT ISZERO PUSH2 0x9F7 JUMPI PUSH1 0x0 DUP1 REVERT JUMPDEST SWAP3 POP SWAP3 SWAP1 POP JUMP JUMPDEST PUSH1 0x0 DUP1 PUSH1 0x0 DUP1 PUSH1 0x60 DUP6 DUP8 SUB SLT ISZERO PUSH2 0xA14 JUMPI PUSH1 0x0 DUP1 REVERT JUMPDEST DUP5 CALLDATALOAD SWAP4 POP PUSH1 0x20 DUP6 ADD CALLDATALOAD SWAP3 POP PUSH1 0x40 DUP6 ADD CALLDATALOAD PUSH8 0xFFFFFFFFFFFFFFFF DUP2 GT ISZERO PUSH2 0xA39 JUMPI PUSH1 0x0 DUP1 REVERT JUMPDEST PUSH2 0xA45 DUP8 DUP3 DUP9 ADD PUSH2 0x9B5 JUMP JUMPDEST SWAP6 SWAP9 SWAP5 SWAP8 POP SWAP6 POP POP POP POP JUMP JUMPDEST DUP1 CALLDATALOAD PUSH1 0x1 PUSH1 0x1 PUSH1 0xA0 SHL SUB DUP2 AND DUP2 EQ PUSH2 0xA68 JUMPI PUSH1 0x0 DUP1 REVERT JUMPDEST SWAP2 SWAP1 POP JUMP JUMPDEST PUSH1 0x0 PUSH1 0x20 DUP3 DUP5 SUB SLT ISZERO PUSH2 0xA7F JUMPI PUSH1 0x0 DUP1 REVERT JUMPDEST PUSH2 0xA88 DUP3 PUSH2 0xA51 JUMP JUMPDEST SWAP4 SWAP3 POP POP POP JUMP JUMPDEST PUSH1 0x0 DUP1 DUP4 PUSH1 0x1F DUP5 ADD SLT PUSH2 0xAA1 JUMPI PUSH1 0x0 DUP1 REVERT JUMPDEST POP DUP2 CALLDATALOAD PUSH8 0xFFFFFFFFFFFFFFFF DUP2 GT ISZERO PUSH2 0xAB9 JUMPI PUSH1 0x0 DUP1 REVERT JUMPDEST PUSH1 0x20 DUP4 ADD SWAP2 POP DUP4 PUSH1 0x20 DUP3 PUSH1 0x5 SHL DUP6 ADD ADD GT ISZERO PUSH2 0x9F7 JUMPI PUSH1 0x0 DUP1 REVERT JUMPDEST PUSH1 0x0 DUP1 PUSH1 0x0 DUP1 PUSH1 0x0 PUSH1 0x60 DUP7 DUP9 SUB SLT ISZERO PUSH2 0xAEC JUMPI PUSH1 0x0 DUP1 REVERT JUMPDEST DUP6 CALLDATALOAD SWAP5 POP PUSH1 0x20 DUP7 ADD CALLDATALOAD PUSH8 0xFFFFFFFFFFFFFFFF DUP1 DUP3 GT ISZERO PUSH2 0xB0B JUMPI PUSH1 0x0 DUP1 REVERT JUMPDEST PUSH2 0xB17 DUP10 DUP4 DUP11 ADD PUSH2 0x9B5 JUMP JUMPDEST SWAP1 SWAP7 POP SWAP5 POP PUSH1 0x40 DUP9 ADD CALLDATALOAD SWAP2 POP DUP1 DUP3 GT ISZERO PUSH2 0xB30 JUMPI PUSH1 0x0 DUP1 REVERT JUMPDEST POP PUSH2 0xB3D DUP9 DUP3 DUP10 ADD PUSH2 0xA8F JUMP JUMPDEST SWAP7 SWAP10 SWAP6 SWAP9 POP SWAP4 SWAP7 POP SWAP3 SWAP5 SWAP4 SWAP3 POP POP POP JUMP JUMPDEST PUSH1 0x0 DUP1 PUSH1 0x40 DUP4 DUP6 SUB SLT ISZERO PUSH2 0xB61 JUMPI PUSH1 0x0 DUP1 REVERT JUMPDEST DUP3 CALLDATALOAD SWAP2 POP PUSH2 0xB71 PUSH1 0x20 DUP5 ADD PUSH2 0xA51 JUMP JUMPDEST SWAP1 POP SWAP3 POP SWAP3 SWAP1 POP JUMP JUMPDEST PUSH1 0x0 PUSH1 0x20 DUP3 DUP5 SUB SLT ISZERO PUSH2 0xB8C JUMPI PUSH1 0x0 DUP1 REVERT JUMPDEST POP CALLDATALOAD SWAP2 SWAP1 POP JUMP JUMPDEST PUSH1 0x0 PUSH1 0x20 DUP1 DUP4 MSTORE DUP4 MLOAD DUP1 DUP3 DUP6 ADD MSTORE PUSH1 0x0 JUMPDEST DUP2 DUP2 LT ISZERO PUSH2 0xBC0 JUMPI DUP6 DUP2 ADD DUP4 ADD MLOAD DUP6 DUP3 ADD PUSH1 0x40 ADD MSTORE DUP3 ADD PUSH2 0xBA4 JUMP JUMPDEST POP PUSH1 0x0 PUSH1 0x40 DUP3 DUP7 ADD ADD MSTORE PUSH1 0x40 PUSH1 0x1F NOT PUSH1 0x1F DUP4 ADD AND DUP6 ADD ADD SWAP3 POP POP POP SWAP3 SWAP2 POP POP JUMP JUMPDEST PUSH1 0x0 DUP1 PUSH1 0x0 DUP1 PUSH1 0x60 DUP6 DUP8 SUB SLT ISZERO PUSH2 0xBF7 JUMPI PUSH1 0x0 DUP1 REVERT JUMPDEST DUP5 CALLDATALOAD SWAP4 POP PUSH1 0x20 DUP6 ADD CALLDATALOAD SWAP3 POP PUSH1 0x40 DUP6 ADD CALLDATALOAD PUSH8 0xFFFFFFFFFFFFFFFF DUP2 GT ISZERO PUSH2 0xC1C JUMPI PUSH1 0x0 DUP1 REVERT JUMPDEST PUSH2 0xA45 DUP8 DUP3 DUP9 ADD PUSH2 0xA8F JUMP JUMPDEST PUSH1 0x0 DUP1 PUSH1 0x40 DUP4 DUP6 SUB SLT ISZERO PUSH2 0xC3B JUMPI PUSH1 0x0 DUP1 REVERT JUMPDEST PUSH2 0xC44 DUP4 PUSH2 0xA51 JUMP JUMPDEST SWAP2 POP PUSH1 0x20 DUP4 ADD CALLDATALOAD DUP1 ISZERO ISZERO DUP2 EQ PUSH2 0xC59 JUMPI PUSH1 0x0 DUP1 REVERT JUMPDEST DUP1 SWAP2 POP POP SWAP3 POP SWAP3 SWAP1 POP JUMP JUMPDEST PUSH1 0x20 DUP1 DUP3 MSTORE PUSH1 0xF SWAP1 DUP3 ADD MSTORE PUSH15 0x27B7363C903334B6329037BBB732B9 PUSH1 0x89 SHL PUSH1 0x40 DUP3 ADD MSTORE PUSH1 0x60 ADD SWAP1 JUMP JUMPDEST PUSH4 0x4E487B71 PUSH1 0xE0 SHL PUSH1 0x0 MSTORE PUSH1 0x41 PUSH1 0x4 MSTORE PUSH1 0x24 PUSH1 0x0 REVERT JUMPDEST PUSH1 0x1 DUP2 DUP2 SHR SWAP1 DUP3 AND DUP1 PUSH2 0xCB7 JUMPI PUSH1 0x7F DUP3 AND SWAP2 POP JUMPDEST PUSH1 0x20 DUP3 LT DUP2 SUB PUSH2 0xCD7 JUMPI PUSH4 0x4E487B71 PUSH1 0xE0 SHL PUSH1 0x0 MSTORE PUSH1 0x22 PUSH1 0x4 MSTORE PUSH1 0x24 PUSH1 0x0 REVERT JUMPDEST POP SWAP2 SWAP1 POP JUMP JUMPDEST PUSH1 0x1F DUP3 GT ISZERO PUSH2 0x8E4 JUMPI PUSH1 0x0 DUP2 DUP2 MSTORE PUSH1 0x20 DUP2 KECCAK256 PUSH1 0x1F DUP6 ADD PUSH1 0x5 SHR DUP2 ADD PUSH1 0x20 DUP7 LT ISZERO PUSH2 0xD04 JUMPI POP DUP1 JUMPDEST PUSH1 0x1F DUP6 ADD PUSH1 0x5 SHR DUP3 ADD SWAP2 POP JUMPDEST DUP2 DUP2 LT ISZERO PUSH2 0xD23 JUMPI DUP3 DUP2 SSTORE PUSH1 0x1 ADD PUSH2 0xD10 JUMP JUMPDEST POP POP POP POP POP POP JUMP JUMPDEST PUSH8 0xFFFFFFFFFFFFFFFF DUP4 GT ISZERO PUSH2 0xD43 JUMPI PUSH2 0xD43 PUSH2 0xC8D JUMP JUMPDEST PUSH2 0xD57 DUP4 PUSH2 0xD51 DUP4 SLOAD PUSH2 0xCA3 JUMP JUMPDEST DUP4 PUSH2 0xCDD JUMP JUMPDEST PUSH1 0x0 PUSH1 0x1F DUP5 GT PUSH1 0x1 DUP2 EQ PUSH2 0xD8B JUMPI PUSH1 0x0 DUP6 ISZERO PUSH2 0xD73 JUMPI POP DUP4 DUP3 ADD CALLDATALOAD JUMPDEST PUSH1 0x0 NOT PUSH1 0x3 DUP8 SWAP1 SHL SHR NOT AND PUSH1 0x1 DUP7 SWAP1 SHL OR DUP4 SSTORE PUSH2 0xDE5 JUMP JUMPDEST PUSH1 0x0 DUP4 DUP2 MSTORE PUSH1 0x20 SWAP1 KECCAK256 PUSH1 0x1F NOT DUP7 AND SWAP1 DUP4 JUMPDEST DUP3 DUP2 LT ISZERO PUSH2 0xDBC JUMPI DUP7 DUP6 ADD CALLDATALOAD DUP3 SSTORE PUSH1 0x20 SWAP5 DUP6 ADD SWAP5 PUSH1 0x1 SWAP1 SWAP3 ADD SWAP2 ADD PUSH2 0xD9C JUMP JUMPDEST POP DUP7 DUP3 LT ISZERO PUSH2 0xDD9 JUMPI PUSH1 0x0 NOT PUSH1 0xF8 DUP9 PUSH1 0x3 SHL AND SHR NOT DUP5 DUP8 ADD CALLDATALOAD AND DUP2 SSTORE JUMPDEST POP POP PUSH1 0x1 DUP6 PUSH1 0x1 SHL ADD DUP4 SSTORE JUMPDEST POP POP POP POP POP JUMP JUMPDEST DUP2 DUP4 MSTORE DUP2 DUP2 PUSH1 0x20 DUP6 ADD CALLDATACOPY POP PUSH1 0x0 DUP3 DUP3 ADD PUSH1 0x20 SWAP1 DUP2 ADD SWAP2 SWAP1 SWAP2 MSTORE PUSH1 0x1F SWAP1 SWAP2 ADD PUSH1 0x1F NOT AND SWAP1 SWAP2 ADD ADD SWAP1 JUMP JUMPDEST PUSH1 0x20 DUP2 MSTORE PUSH1 0x0 PUSH2 0xE29 PUSH1 0x20 DUP4 ADD DUP5 DUP7 PUSH2 0xDEC JUMP JUMPDEST SWAP5 SWAP4 POP POP POP POP JUMP JUMPDEST DUP2 DUP4 MSTORE PUSH1 0x0 PUSH1 0x20 DUP1 DUP6 ADD SWAP5 POP DUP3 PUSH1 0x0 JUMPDEST DUP6 DUP2 LT ISZERO PUSH2 0xE6D JUMPI PUSH1 0x1 PUSH1 0x1 PUSH1 0xA0 SHL SUB PUSH2 0xE5A DUP4 PUSH2 0xA51 JUMP JUMPDEST AND DUP8 MSTORE SWAP6 DUP3 ADD SWAP6 SWAP1 DUP3 ADD SWAP1 PUSH1 0x1 ADD PUSH2 0xE41 JUMP JUMPDEST POP SWAP5 SWAP6 SWAP5 POP POP POP POP POP JUMP JUMPDEST PUSH1 0x1 PUSH1 0x1 PUSH1 0xA0 SHL SUB DUP7 AND DUP2 MSTORE PUSH1 0x60 PUSH1 0x20 DUP3 ADD DUP2 SWAP1 MSTORE PUSH1 0x0 SWAP1 PUSH2 0xE9D SWAP1 DUP4 ADD DUP7 DUP9 PUSH2 0xDEC JUMP JUMPDEST DUP3 DUP2 SUB PUSH1 0x40 DUP5 ADD MSTORE PUSH2 0xEB0 DUP2 DUP6 DUP8 PUSH2 0xE31 JUMP JUMPDEST SWAP9 SWAP8 POP POP POP POP POP POP POP POP JUMP JUMPDEST DUP2 DUP2 SUB PUSH2 0xEC7 JUMPI POP POP JUMP JUMPDEST PUSH2 0xED1 DUP3 SLOAD PUSH2 0xCA3 JUMP JUMPDEST PUSH8 0xFFFFFFFFFFFFFFFF DUP2 GT ISZERO PUSH2 0xEE9 JUMPI PUSH2 0xEE9 PUSH2 0xC8D JUMP JUMPDEST PUSH2 0xEFD DUP2 PUSH2 0xEF7 DUP5 SLOAD PUSH2 0xCA3 JUMP JUMPDEST DUP5 PUSH2 0xCDD JUMP JUMPDEST PUSH1 0x0 PUSH1 0x1F DUP3 GT PUSH1 0x1 DUP2 EQ PUSH2 0xF31 JUMPI PUSH1 0x0 DUP4 ISZERO PUSH2 0xF19 JUMPI POP DUP5 DUP3 ADD SLOAD JUMPDEST PUSH1 0x0 NOT PUSH1 0x3 DUP6 SWAP1 SHL SHR NOT AND PUSH1 0x1 DUP5 SWAP1 SHL OR DUP5 SSTORE PUSH2 0xDE5 JUMP JUMPDEST PUSH1 0x0 DUP6 DUP2 MSTORE PUSH1 0x20 SWAP1 KECCAK256 PUSH1 0x1F NOT DUP5 AND SWAP1 PUSH1 0x0 DUP7 DUP2 MSTORE PUSH1 0x20 SWAP1 KECCAK256 DUP5 JUMPDEST DUP4 DUP2 LT ISZERO PUSH2 0xF6B JUMPI DUP3 DUP7 ADD SLOAD DUP3 SSTORE PUSH1 0x1 SWAP6 DUP7 ADD SWAP6 SWAP1 SWAP2 ADD SWAP1 PUSH1 0x20 ADD PUSH2 0xF4B JUMP JUMPDEST POP DUP6 DUP4 LT ISZERO PUSH2 0xF89 JUMPI DUP2 DUP6 ADD SLOAD PUSH1 0x0 NOT PUSH1 0x3 DUP9 SWAP1 SHL PUSH1 0xF8 AND SHR NOT AND DUP2 SSTORE JUMPDEST POP POP POP POP POP PUSH1 0x1 SWAP1 DUP2 SHL ADD SWAP1 SSTORE POP JUMP JUMPDEST PUSH4 0x4E487B71 PUSH1 0xE0 SHL PUSH1 0x0 MSTORE PUSH1 0x32 PUSH1 0x4 MSTORE PUSH1 0x24 PUSH1 0x0 REVERT JUMPDEST PUSH1 0x0 PUSH1 0x1 DUP3 ADD PUSH2 0xFCF JUMPI PUSH4 0x4E487B71 PUSH1 0xE0 SHL PUSH1 0x0 MSTORE PUSH1 0x11 PUSH1 0x4 MSTORE PUSH1 0x24 PUSH1 0x0 REVERT JUMPDEST POP PUSH1 0x1 ADD SWAP1 JUMP JUMPDEST PUSH1 0x20 DUP2 MSTORE PUSH1 0x0 PUSH2 0xE29 PUSH1 0x20 DUP4 ADD DUP5 DUP7 PUSH2 0xE31 JUMP INVALID LOG2 PUSH5 0x6970667358 0x22 SLT KECCAK256 SWAP14 0xC9 DUP4 PUSH14 0xAEBDF7C9C2746D85A9BE18F2467C 0xC5 0xE6 SLT 0xD8 SWAP15 PUSH5 0x7B5D85CA3B PUSH2 0xFDAF PUSH5 0x736F6C6343 STOP ADDMOD SGT STOP CALLER "},"gasEstimates":{"creation":{"codeDepositCost":"825600","executionCost":"26698","totalCost":"852298"},"external":{"addFile(bytes32,string,address[])":"infinite","dataOwner(address)":"2576","fileOwners(bytes32)":"2488","fileWriters(bytes32,uint256)":"4695","isWriter(bytes32,address)":"infinite","owner()":"2431","readFileRule(bytes32)":"infinite","renounceOwnership()":"infinite","setDataOwner(address,bool)":"26946","transferOwnership(address)":"28377","updateFile(bytes32,bytes32)":"infinite","updateReadRule(bytes32,bytes32,string)":"infinite","updateWriteList(bytes32,bytes32,address[])":"infinite"},"internal":{"_setWriteList(bytes32,address[] memory)":"infinite"}},"methodIdentifiers":{"addFile(bytes32,string,address[])":"6df2a185","dataOwner(address)":"4d627d88","fileOwners(bytes32)":"ece36781","fileWriters(bytes32,uint256)":"30c8b59b","isWriter(bytes32,address)":"b301803d","owner()":"8da5cb5b","readFileRule(bytes32)":"b50a5453","renounceOwnership()":"715018a6","setDataOwner(address,bool)":"f8790b20","transferOwnership(address)":"f2fde38b","updateFile(bytes32,bytes32)":"947efe06","updateReadRule(bytes32,bytes32,string)":"37b519e1","updateWriteList(bytes32,bytes32,address[])":"f32b4be7"}},"storageLayout":{"storage":[{"astId":7,"contract":"contracts/FileAccessControl0.sol:FileAccessControl0","label":"_owner","offset":0,"slot":"0","type":"t_address"},{"astId":746,"contract":"contracts/FileAccessControl0.sol:FileAccessControl0","label":"dataOwner","offset":0,"slot":"1","type":"t_mapping(t_address,t_bool)"},{"astId":750,"contract":"contracts/FileAccessControl0.sol:FileAccessControl0","label":"fileOwners","offset":0,"slot":"2","type":"t_mapping(t_bytes32,t_address)"},{"astId":754,"contract":"contracts/FileAccessControl0.sol:FileAccessControl0","label":"readFileRule","offset":0,"slot":"3","type":"t_mapping(t_bytes32,t_string_storage)"},{"astId":759,"contract":"contracts/FileAccessControl0.sol:FileAccessControl0","label":"fileWriters","offset":0,"slot":"4","type":"t_mapping(t_bytes32,t_array(t_address)dyn_storage)"}],"types":{"t_address":{"encoding":"inplace","label":"address","numberOfBytes":"20"},"t_array(t_address)dyn_storage":{"base":"t_address","encoding":"dynamic_array","label":"address[]","numberOfBytes":"32"},"t_bool":{"encoding":"inplace","label":"bool","numberOfBytes":"1"},"t_bytes32":{"encoding":"inplace","label":"bytes32","numberOfBytes":"32"},"t_mapping(t_address,t_bool)":{"encoding":"mapping","key":"t_address","label":"mapping(address => bool)","numberOfBytes":"32","value":"t_bool"},"t_mapping(t_bytes32,t_address)":{"encoding":"mapping","key":"t_bytes32","label":"mapping(bytes32 => address)","numberOfBytes":"32","value":"t_address"},"t_mapping(t_bytes32,t_array(t_address)dyn_storage)":{"encoding":"mapping","key":"t_bytes32","label":"mapping(bytes32 => address[])","numberOfBytes":"32","value":"t_array(t_address)dyn_storage"},"t_mapping(t_bytes32,t_string_storage)":{"encoding":"mapping","key":"t_bytes32","label":"mapping(bytes32 => string)","numberOfBytes":"32","value":"t_string_storage"},"t_string_storage":{"encoding":"bytes","label":"string","numberOfBytes":"32"}}},"userdoc":{"kind":"user","methods":{},"version":1}}}}