{"contracts/FileAccessControl.sol":{"FileAccessControl":{"abi":[{"anonymous":false,"inputs":[{"indexed":true,"internalType":"bytes32","name":"fileId","type":"bytes32"},{"indexed":false,"internalType":"address","name":"owner","type":"address"},{"indexed":false,"internalType":"string","name":"name","type":"string"},{"indexed":false,"internalType":"string","name":"readRule","type":"string"},{"indexed":false,"internalType":"address[]","name":"writeList","type":"address[]"},{"indexed":false,"internalType":"uint256","name":"threshold","type":"uint256"}],"name":"AddFile","type":"event"},{"anonymous":false,"inputs":[{"indexed":true,"internalType":"address","name":"previousOwner","type":"address"},{"indexed":true,"internalType":"address","name":"newOwner","type":"address"}],"name":"OwnershipTransferred","type":"event"},{"anonymous":false,"inputs":[{"indexed":true,"internalType":"bytes32","name":"fileId","type":"bytes32"}],"name":"ReadFile","type":"event"},{"anonymous":false,"inputs":[{"indexed":true,"internalType":"bytes32","name":"proposalId","type":"bytes32"},{"indexed":true,"internalType":"bytes32","name":"fileId","type":"bytes32"},{"indexed":false,"internalType":"string","name":"oldname","type":"string"},{"indexed":false,"internalType":"string","name":"newname","type":"string"}],"name":"UpdateFile","type":"event"},{"anonymous":false,"inputs":[{"indexed":true,"internalType":"bytes32","name":"proposalId","type":"bytes32"},{"indexed":true,"internalType":"bytes32","name":"fileId","type":"bytes32"},{"indexed":false,"internalType":"string","name":"oldname","type":"string"},{"indexed":false,"internalType":"string","name":"newname","type":"string"}],"name":"UpdateProposal","type":"event"},{"anonymous":false,"inputs":[{"indexed":true,"internalType":"bytes32","name":"newFileId","type":"bytes32"},{"indexed":true,"internalType":"bytes32","name":"oldFileId","type":"bytes32"},{"indexed":false,"internalType":"string","name":"readRule","type":"string"}],"name":"UpdateReadRule","type":"event"},{"anonymous":false,"inputs":[{"indexed":true,"internalType":"bytes32","name":"newFileId","type":"bytes32"},{"indexed":true,"internalType":"bytes32","name":"oldFileId","type":"bytes32"},{"indexed":false,"internalType":"address[]","name":"writeList","type":"address[]"}],"name":"UpdateWriteList","type":"event"},{"inputs":[{"internalType":"bytes32","name":"fileId","type":"bytes32"},{"internalType":"string","name":"name","type":"string"},{"internalType":"string","name":"readRule","type":"string"},{"internalType":"address[]","name":"writeList","type":"address[]"},{"internalType":"uint256","name":"threshold","type":"uint256"}],"name":"addFile","outputs":[],"stateMutability":"nonpayable","type":"function"},{"inputs":[{"internalType":"bytes32","name":"proposalId","type":"bytes32"}],"name":"approveProposal","outputs":[],"stateMutability":"nonpayable","type":"function"},{"inputs":[{"internalType":"string","name":"str1","type":"string"},{"internalType":"string","name":"str2","type":"string"}],"name":"compare","outputs":[{"internalType":"bool","name":"","type":"bool"}],"stateMutability":"pure","type":"function"},{"inputs":[{"internalType":"address","name":"","type":"address"}],"name":"dataOwner","outputs":[{"internalType":"bool","name":"","type":"bool"}],"stateMutability":"view","type":"function"},{"inputs":[{"internalType":"bytes32","name":"","type":"bytes32"}],"name":"files","outputs":[{"internalType":"address","name":"owner","type":"address"},{"internalType":"string","name":"name","type":"string"},{"internalType":"string","name":"readRule","type":"string"},{"internalType":"uint256","name":"threshold","type":"uint256"}],"stateMutability":"view","type":"function"},{"inputs":[{"internalType":"address","name":"user","type":"address"},{"internalType":"address[]","name":"list","type":"address[]"}],"name":"isInList","outputs":[{"internalType":"bool","name":"","type":"bool"}],"stateMutability":"pure","type":"function"},{"inputs":[],"name":"owner","outputs":[{"internalType":"address","name":"","type":"address"}],"stateMutability":"view","type":"function"},{"inputs":[{"internalType":"bytes32","name":"fileId","type":"bytes32"}],"name":"readFile","outputs":[],"stateMutability":"payable","type":"function"},{"inputs":[],"name":"renounceOwnership","outputs":[],"stateMutability":"nonpayable","type":"function"},{"inputs":[{"internalType":"address","name":"user","type":"address"},{"internalType":"bool","name":"isDataOwner","type":"bool"}],"name":"setDataOwner","outputs":[],"stateMutability":"nonpayable","type":"function"},{"inputs":[{"internalType":"bytes32","name":"proposalId","type":"bytes32"},{"internalType":"bytes32","name":"fileId","type":"bytes32"},{"internalType":"string","name":"oldname","type":"string"},{"internalType":"string","name":"newname","type":"string"}],"name":"submitUpdateFileProposal","outputs":[],"stateMutability":"nonpayable","type":"function"},{"inputs":[{"internalType":"address","name":"newOwner","type":"address"}],"name":"transferOwnership","outputs":[],"stateMutability":"nonpayable","type":"function"},{"inputs":[{"internalType":"bytes32","name":"","type":"bytes32"}],"name":"writeProposal","outputs":[{"internalType":"bytes32","name":"fileId","type":"bytes32"},{"internalType":"string","name":"oldname","type":"string"},{"internalType":"string","name":"newname","type":"string"}],"stateMutability":"view","type":"function"}],"devdoc":{"kind":"dev","methods":{"owner()":{"details":"Returns the address of the current owner."},"renounceOwnership()":{"details":"Leaves the contract without owner. It will not be possible to call `onlyOwner` functions anymore. Can only be called by the current owner. NOTE: Renouncing ownership will leave the contract without an owner, thereby removing any functionality that is only available to the owner."},"transferOwnership(address)":{"details":"Transfers ownership of the contract to a new account (`newOwner`). Can only be called by the current owner."}},"version":1},"evm":{"bytecode":{"linkReferences":{},"object":"608060405234801561001057600080fd5b5061001a3361001f565b61006f565b600080546001600160a01b038381166001600160a01b0319831681178455604051919092169283917f8be0079c531659141344cd1fd0a4f28419497f9722a3daafe3b4186f6b6457e09190a35050565b6119098061007e6000396000f3fe6080604052600436106100c25760003560e01c80638da5cb5b1161007f578063a890b7be11610059578063a890b7be1461021d578063f20b5b2c1461023d578063f2fde38b1461025d578063f8790b201461027d57600080fd5b80638da5cb5b146101965780639503cf88146101be57806398c9adff146101ed57600080fd5b8063042a312a146100c75780633a72a9c4146100e95780633a96fdd7146100fc578063407acf57146101315780634d627d8814610151578063715018a614610181575b600080fd5b3480156100d357600080fd5b506100e76100e2366004611039565b61029d565b005b6100e76100f7366004611116565b6103e4565b34801561010857600080fd5b5061011c6101173660046111e6565b610412565b60405190151581526020015b60405180910390f35b34801561013d57600080fd5b506100e761014c36600461124a565b61046c565b34801561015d57600080fd5b5061011c61016c3660046112e9565b60016020526000908152604090205460ff1681565b34801561018d57600080fd5b506100e76108de565b3480156101a257600080fd5b506000546040516001600160a01b039091168152602001610128565b3480156101ca57600080fd5b506101de6101d9366004611116565b6108f2565b6040516101289392919061135b565b3480156101f957600080fd5b5061020d610208366004611116565b610a25565b6040516101289493929190611390565b34801561022957600080fd5b5061011c6102383660046113d8565b610b68565b34801561024957600080fd5b506100e7610258366004611116565b610bcd565b34801561026957600080fd5b506100e76102783660046112e9565b610e17565b34801561028957600080fd5b506100e7610298366004611498565b610e8d565b3360009081526001602052604090205460ff166102f65760405162461bcd60e51b81526020600482015260126024820152712922a8aaa4a922903230ba309037bbb732b960711b60448201526064015b60405180910390fd5b600088815260026020526040902080546001600160a01b0319163317815560010161032287898361155c565b5060008881526002602081905260409091200161034085878361155c565b5061037e88848480806020026020016040519081016040528093929190818152602001838360200280828437600092019190915250610ec092505050565b600088815260026020526040908190206004018290555188907f3e0642ed2c9a291f129ce3736d8e28d75b6665fb730bb7c2116082e34ffd13ed906103d29033908b908b908b908b908b908b908b90611646565b60405180910390a25050505050505050565b60405181907ff9ae523dfccbc09c59a0223bb47ce04ac1262d7ab3b3161cea8926ac81dbee3e90600090a250565b60008160405160200161042591906116d0565b604051602081830303815290604052805190602001208360405160200161044c91906116d0565b604051602081830303815290604052805190602001201490505b92915050565b60008484848460405160200161048594939291906116ec565b60405160208183030381529060405290506000816040516020016104a991906116d0565b6040516020818303038152906040528051906020012090508781146105065760405162461bcd60e51b8152602060048201526013602482015272125b9d985b1a59081c1c9bdc1bdcd85b081251606a1b60448201526064016102ed565b61057e33600260008a815260200190815260200160002060030180548060200260200160405190810160405280929190818152602001828054801561057457602002820191906000526020600020905b81546001600160a01b03168152600190910190602001808311610556575b5050505050610b68565b15156001146105c55760405162461bcd60e51b81526020600482015260136024820152722727903bb934ba32903832b936b4b9b9b4b7b760691b60448201526064016102ed565b600087815260026020526040902060010180546106a091906105e6906114d4565b80601f0160208091040260200160405190810160405280929190818152602001828054610612906114d4565b801561065f5780601f106106345761010080835404028352916020019161065f565b820191906000526020600020905b81548152906001019060200180831161064257829003601f168201915b505050505087878080601f01602080910402602001604051908101604052809392919081815260200183838082843760009201919091525061041292505050565b15156001146106ea5760405162461bcd60e51b81526020600482015260166024820152754e4f54206d61746368696e672066696c65206e616d6560501b60448201526064016102ed565b61076033600360008a8152602001908152602001600020600301805480602002602001604051908101604052809291908181526020018280548015610574576020028201919060005260206000209081546001600160a01b03168152600190910190602001808311610556575050505050610b68565b15156000036108d4576000888152600360208181526040832091820180546001818101835591855291842090910180546001600160a01b03191633179055918a9052888155016107b186888361155c565b5060008881526003602052604090206002016107ce84868361155c565b5060008881526003602052604090819020805491518a917fae0ecc26408637002f5d1e9f1143095aef0d20bd60fe289a7df720f50a0217919161081b91600181019160029091019061178b565b60405180910390a36000888152600360208181526040808420805485526002835290842060040154938c9052908290520154106108d45760008881526003602090815260408083208054845260029283905292206001019161087e9101826117b9565b5060008881526003602052604090819020805491518a917feb903a069c935d0f3438435136ca85414bc56c7b332afcd672fcd634ba5861c3916108cb91600181019160029091019061178b565b60405180910390a35b5050505050505050565b6108e6610f46565b6108f06000610fa0565b565b60036020526000908152604090208054600182018054919291610914906114d4565b80601f0160208091040260200160405190810160405280929190818152602001828054610940906114d4565b801561098d5780601f106109625761010080835404028352916020019161098d565b820191906000526020600020905b81548152906001019060200180831161097057829003601f168201915b5050505050908060020180546109a2906114d4565b80601f01602080910402602001604051908101604052809291908181526020018280546109ce906114d4565b8015610a1b5780601f106109f057610100808354040283529160200191610a1b565b820191906000526020600020905b8154815290600101906020018083116109fe57829003601f168201915b5050505050905083565b600260205260009081526040902080546001820180546001600160a01b039092169291610a51906114d4565b80601f0160208091040260200160405190810160405280929190818152602001828054610a7d906114d4565b8015610aca5780601f10610a9f57610100808354040283529160200191610aca565b820191906000526020600020905b815481529060010190602001808311610aad57829003601f168201915b505050505090806002018054610adf906114d4565b80601f0160208091040260200160405190810160405280929190818152602001828054610b0b906114d4565b8015610b585780601f10610b2d57610100808354040283529160200191610b58565b820191906000526020600020905b815481529060010190602001808311610b3b57829003601f168201915b5050505050908060040154905084565b6000805b8251811015610bc357836001600160a01b0316838281518110610b9157610b91611896565b60200260200101516001600160a01b031603610bb1576001915050610466565b80610bbb816118ac565b915050610b6c565b5060009392505050565b600081815260036020818152604080842054845260028252928390209091018054835181840281018401909452808452610c4893339390929190830182828015610574576020028201919060005260206000209081546001600160a01b03168152600190910190602001808311610556575050505050610b68565b1515600114610c905760405162461bcd60e51b81526020600482015260146024820152732727903b37ba34b733903832b936b4b9b9b4b7b760611b60448201526064016102ed565b610d063360036000848152602001908152602001600020600301805480602002602001604051908101604052809291908181526020018280548015610574576020028201919060005260206000209081546001600160a01b03168152600190910190602001808311610556575050505050610b68565b15610d435760405162461bcd60e51b815260206004820152600d60248201526c105b1c9958591e481d9bdd1959609a1b60448201526064016102ed565b600081815260036020818152604080842080840180546001810182558187528487200180546001600160a01b03191633179055905485526002835290842060040154938590529190525410610e1457600081815260036020908152604080832080548452600292839052922060010191610dbe9101826117b9565b50600081815260036020526040908190208054915183917feb903a069c935d0f3438435136ca85414bc56c7b332afcd672fcd634ba5861c391610e0b91600181019160029091019061178b565b60405180910390a35b50565b610e1f610f46565b6001600160a01b038116610e845760405162461bcd60e51b815260206004820152602660248201527f4f776e61626c653a206e6577206f776e657220697320746865207a65726f206160448201526564647265737360d01b60648201526084016102ed565b610e1481610fa0565b610e95610f46565b6001600160a01b03919091166000908152600160205260409020805460ff1916911515919091179055565b60005b8151811015610f415760026000848152602001908152602001600020600301828281518110610ef457610ef4611896565b60209081029190910181015182546001810184556000938452919092200180546001600160a01b0319166001600160a01b0390921691909117905580610f39816118ac565b915050610ec3565b505050565b6000546001600160a01b031633146108f05760405162461bcd60e51b815260206004820181905260248201527f4f776e61626c653a2063616c6c6572206973206e6f7420746865206f776e657260448201526064016102ed565b600080546001600160a01b038381166001600160a01b0319831681178455604051919092169283917f8be0079c531659141344cd1fd0a4f28419497f9722a3daafe3b4186f6b6457e09190a35050565b60008083601f84011261100257600080fd5b50813567ffffffffffffffff81111561101a57600080fd5b60208301915083602082850101111561103257600080fd5b9250929050565b60008060008060008060008060a0898b03121561105557600080fd5b88359750602089013567ffffffffffffffff8082111561107457600080fd5b6110808c838d01610ff0565b909950975060408b013591508082111561109957600080fd5b6110a58c838d01610ff0565b909750955060608b01359150808211156110be57600080fd5b818b0191508b601f8301126110d257600080fd5b8135818111156110e157600080fd5b8c60208260051b85010111156110f657600080fd5b602083019550809450505050608089013590509295985092959890939650565b60006020828403121561112857600080fd5b5035919050565b634e487b7160e01b600052604160045260246000fd5b604051601f8201601f1916810167ffffffffffffffff8111828210171561116e5761116e61112f565b604052919050565b600082601f83011261118757600080fd5b813567ffffffffffffffff8111156111a1576111a161112f565b6111b4601f8201601f1916602001611145565b8181528460208386010111156111c957600080fd5b816020850160208301376000918101602001919091529392505050565b600080604083850312156111f957600080fd5b823567ffffffffffffffff8082111561121157600080fd5b61121d86838701611176565b9350602085013591508082111561123357600080fd5b5061124085828601611176565b9150509250929050565b6000806000806000806080878903121561126357600080fd5b8635955060208701359450604087013567ffffffffffffffff8082111561128957600080fd5b6112958a838b01610ff0565b909650945060608901359150808211156112ae57600080fd5b506112bb89828a01610ff0565b979a9699509497509295939492505050565b80356001600160a01b03811681146112e457600080fd5b919050565b6000602082840312156112fb57600080fd5b611304826112cd565b9392505050565b60005b8381101561132657818101518382015260200161130e565b50506000910152565b6000815180845261134781602086016020860161130b565b601f01601f19169290920160200192915050565b838152606060208201526000611374606083018561132f565b8281036040840152611386818561132f565b9695505050505050565b6001600160a01b03851681526080602082018190526000906113b49083018661132f565b82810360408401526113c6818661132f565b91505082606083015295945050505050565b600080604083850312156113eb57600080fd5b6113f4836112cd565b915060208084013567ffffffffffffffff8082111561141257600080fd5b818601915086601f83011261142657600080fd5b8135818111156114385761143861112f565b8060051b9150611449848301611145565b818152918301840191848101908984111561146357600080fd5b938501935b8385101561148857611479856112cd565b82529385019390850190611468565b8096505050505050509250929050565b600080604083850312156114ab57600080fd5b6114b4836112cd565b9150602083013580151581146114c957600080fd5b809150509250929050565b600181811c908216806114e857607f821691505b60208210810361150857634e487b7160e01b600052602260045260246000fd5b50919050565b601f821115610f4157600081815260208120601f850160051c810160208610156115355750805b601f850160051c820191505b8181101561155457828155600101611541565b505050505050565b67ffffffffffffffff8311156115745761157461112f565b6115888361158283546114d4565b8361150e565b6000601f8411600181146115bc57600085156115a45750838201355b600019600387901b1c1916600186901b178355611616565b600083815260209020601f19861690835b828110156115ed57868501358255602094850194600190920191016115cd565b508682101561160a5760001960f88860031b161c19848701351681555b505060018560011b0183555b5050505050565b81835281816020850137506000828201602090810191909152601f909101601f19169091010190565b600060018060a01b03808b168352602060a08185015261166a60a085018b8d61161d565b848103604086015261167d818a8c61161d565b8581036060870152878152889150820160005b888110156116b557846116a2846112cd565b1682529183019190830190600101611690565b50809450505050508260808301529998505050505050505050565b600082516116e281846020870161130b565b9190910192915050565b8385823760008482016000815283858237600093019283525090949350505050565b6000815461171b816114d4565b808552602060018381168015611738576001811461175257611780565b60ff1985168884015283151560051b880183019550611780565b866000528260002060005b858110156117785781548a820186015290830190840161175d565b890184019650505b505050505092915050565b60408152600061179e604083018561170e565b82810360208401526117b0818561170e565b95945050505050565b8181036117c4575050565b6117ce82546114d4565b67ffffffffffffffff8111156117e6576117e661112f565b6117fa816117f484546114d4565b8461150e565b6000601f82116001811461182e57600083156118165750848201545b600019600385901b1c1916600184901b178455611616565b600085815260209020601f19841690600086815260209020845b838110156118685782860154825560019586019590910190602001611848565b50858310156118865781850154600019600388901b60f8161c191681555b5050505050600190811b01905550565b634e487b7160e01b600052603260045260246000fd5b6000600182016118cc57634e487b7160e01b600052601160045260246000fd5b506001019056fea26469706673582212207123ef8978f484bb9b5c8a846ee5a14fa9126731c3bec11427f1439125a1794a64736f6c63430008130033","opcodes":"PUSH1 0x80 PUSH1 0x40 MSTORE CALLVALUE DUP1 ISZERO PUSH2 0x10 JUMPI PUSH1 0x0 DUP1 REVERT JUMPDEST POP PUSH2 0x1A CALLER PUSH2 0x1F JUMP JUMPDEST PUSH2 0x6F JUMP JUMPDEST PUSH1 0x0 DUP1 SLOAD PUSH1 0x1 PUSH1 0x1 PUSH1 0xA0 SHL SUB DUP4 DUP2 AND PUSH1 0x1 PUSH1 0x1 PUSH1 0xA0 SHL SUB NOT DUP4 AND DUP2 OR DUP5 SSTORE PUSH1 0x40 MLOAD SWAP2 SWAP1 SWAP3 AND SWAP3 DUP4 SWAP2 PUSH32 0x8BE0079C531659141344CD1FD0A4F28419497F9722A3DAAFE3B4186F6B6457E0 SWAP2 SWAP1 LOG3 POP POP JUMP JUMPDEST PUSH2 0x1909 DUP1 PUSH2 0x7E PUSH1 0x0 CODECOPY PUSH1 0x0 RETURN INVALID PUSH1 0x80 PUSH1 0x40 MSTORE PUSH1 0x4 CALLDATASIZE LT PUSH2 0xC2 JUMPI PUSH1 0x0 CALLDATALOAD PUSH1 0xE0 SHR DUP1 PUSH4 0x8DA5CB5B GT PUSH2 0x7F JUMPI DUP1 PUSH4 0xA890B7BE GT PUSH2 0x59 JUMPI DUP1 PUSH4 0xA890B7BE EQ PUSH2 0x21D JUMPI DUP1 PUSH4 0xF20B5B2C EQ PUSH2 0x23D JUMPI DUP1 PUSH4 0xF2FDE38B EQ PUSH2 0x25D JUMPI DUP1 PUSH4 0xF8790B20 EQ PUSH2 0x27D JUMPI PUSH1 0x0 DUP1 REVERT JUMPDEST DUP1 PUSH4 0x8DA5CB5B EQ PUSH2 0x196 JUMPI DUP1 PUSH4 0x9503CF88 EQ PUSH2 0x1BE JUMPI DUP1 PUSH4 0x98C9ADFF EQ PUSH2 0x1ED JUMPI PUSH1 0x0 DUP1 REVERT JUMPDEST DUP1 PUSH4 0x42A312A EQ PUSH2 0xC7 JUMPI DUP1 PUSH4 0x3A72A9C4 EQ PUSH2 0xE9 JUMPI DUP1 PUSH4 0x3A96FDD7 EQ PUSH2 0xFC JUMPI DUP1 PUSH4 0x407ACF57 EQ PUSH2 0x131 JUMPI DUP1 PUSH4 0x4D627D88 EQ PUSH2 0x151 JUMPI DUP1 PUSH4 0x715018A6 EQ PUSH2 0x181 JUMPI JUMPDEST PUSH1 0x0 DUP1 REVERT JUMPDEST CALLVALUE DUP1 ISZERO PUSH2 0xD3 JUMPI PUSH1 0x0 DUP1 REVERT JUMPDEST POP PUSH2 0xE7 PUSH2 0xE2 CALLDATASIZE PUSH1 0x4 PUSH2 0x1039 JUMP JUMPDEST PUSH2 0x29D JUMP JUMPDEST STOP JUMPDEST PUSH2 0xE7 PUSH2 0xF7 CALLDATASIZE PUSH1 0x4 PUSH2 0x1116 JUMP JUMPDEST PUSH2 0x3E4 JUMP JUMPDEST CALLVALUE DUP1 ISZERO PUSH2 0x108 JUMPI PUSH1 0x0 DUP1 REVERT JUMPDEST POP PUSH2 0x11C PUSH2 0x117 CALLDATASIZE PUSH1 0x4 PUSH2 0x11E6 JUMP JUMPDEST PUSH2 0x412 JUMP JUMPDEST PUSH1 0x40 MLOAD SWAP1 ISZERO ISZERO DUP2 MSTORE PUSH1 0x20 ADD JUMPDEST PUSH1 0x40 MLOAD DUP1 SWAP2 SUB SWAP1 RETURN JUMPDEST CALLVALUE DUP1 ISZERO PUSH2 0x13D JUMPI PUSH1 0x0 DUP1 REVERT JUMPDEST POP PUSH2 0xE7 PUSH2 0x14C CALLDATASIZE PUSH1 0x4 PUSH2 0x124A JUMP JUMPDEST PUSH2 0x46C JUMP JUMPDEST CALLVALUE DUP1 ISZERO PUSH2 0x15D JUMPI PUSH1 0x0 DUP1 REVERT JUMPDEST POP PUSH2 0x11C PUSH2 0x16C CALLDATASIZE PUSH1 0x4 PUSH2 0x12E9 JUMP JUMPDEST PUSH1 0x1 PUSH1 0x20 MSTORE PUSH1 0x0 SWAP1 DUP2 MSTORE PUSH1 0x40 SWAP1 KECCAK256 SLOAD PUSH1 0xFF AND DUP2 JUMP JUMPDEST CALLVALUE DUP1 ISZERO PUSH2 0x18D JUMPI PUSH1 0x0 DUP1 REVERT JUMPDEST POP PUSH2 0xE7 PUSH2 0x8DE JUMP JUMPDEST CALLVALUE DUP1 ISZERO PUSH2 0x1A2 JUMPI PUSH1 0x0 DUP1 REVERT JUMPDEST POP PUSH1 0x0 SLOAD PUSH1 0x40 MLOAD PUSH1 0x1 PUSH1 0x1 PUSH1 0xA0 SHL SUB SWAP1 SWAP2 AND DUP2 MSTORE PUSH1 0x20 ADD PUSH2 0x128 JUMP JUMPDEST CALLVALUE DUP1 ISZERO PUSH2 0x1CA JUMPI PUSH1 0x0 DUP1 REVERT JUMPDEST POP PUSH2 0x1DE PUSH2 0x1D9 CALLDATASIZE PUSH1 0x4 PUSH2 0x1116 JUMP JUMPDEST PUSH2 0x8F2 JUMP JUMPDEST PUSH1 0x40 MLOAD PUSH2 0x128 SWAP4 SWAP3 SWAP2 SWAP1 PUSH2 0x135B JUMP JUMPDEST CALLVALUE DUP1 ISZERO PUSH2 0x1F9 JUMPI PUSH1 0x0 DUP1 REVERT JUMPDEST POP PUSH2 0x20D PUSH2 0x208 CALLDATASIZE PUSH1 0x4 PUSH2 0x1116 JUMP JUMPDEST PUSH2 0xA25 JUMP JUMPDEST PUSH1 0x40 MLOAD PUSH2 0x128 SWAP5 SWAP4 SWAP3 SWAP2 SWAP1 PUSH2 0x1390 JUMP JUMPDEST CALLVALUE DUP1 ISZERO PUSH2 0x229 JUMPI PUSH1 0x0 DUP1 REVERT JUMPDEST POP PUSH2 0x11C PUSH2 0x238 CALLDATASIZE PUSH1 0x4 PUSH2 0x13D8 JUMP JUMPDEST PUSH2 0xB68 JUMP JUMPDEST CALLVALUE DUP1 ISZERO PUSH2 0x249 JUMPI PUSH1 0x0 DUP1 REVERT JUMPDEST POP PUSH2 0xE7 PUSH2 0x258 CALLDATASIZE PUSH1 0x4 PUSH2 0x1116 JUMP JUMPDEST PUSH2 0xBCD JUMP JUMPDEST CALLVALUE DUP1 ISZERO PUSH2 0x269 JUMPI PUSH1 0x0 DUP1 REVERT JUMPDEST POP PUSH2 0xE7 PUSH2 0x278 CALLDATASIZE PUSH1 0x4 PUSH2 0x12E9 JUMP JUMPDEST PUSH2 0xE17 JUMP JUMPDEST CALLVALUE DUP1 ISZERO PUSH2 0x289 JUMPI PUSH1 0x0 DUP1 REVERT JUMPDEST POP PUSH2 0xE7 PUSH2 0x298 CALLDATASIZE PUSH1 0x4 PUSH2 0x1498 JUMP JUMPDEST PUSH2 0xE8D JUMP JUMPDEST CALLER PUSH1 0x0 SWAP1 DUP2 MSTORE PUSH1 0x1 PUSH1 0x20 MSTORE PUSH1 0x40 SWAP1 KECCAK256 SLOAD PUSH1 0xFF AND PUSH2 0x2F6 JUMPI PUSH1 0x40 MLOAD PUSH3 0x461BCD PUSH1 0xE5 SHL DUP2 MSTORE PUSH1 0x20 PUSH1 0x4 DUP3 ADD MSTORE PUSH1 0x12 PUSH1 0x24 DUP3 ADD MSTORE PUSH18 0x2922A8AAA4A922903230BA309037BBB732B9 PUSH1 0x71 SHL PUSH1 0x44 DUP3 ADD MSTORE PUSH1 0x64 ADD JUMPDEST PUSH1 0x40 MLOAD DUP1 SWAP2 SUB SWAP1 REVERT JUMPDEST PUSH1 0x0 DUP9 DUP2 MSTORE PUSH1 0x2 PUSH1 0x20 MSTORE PUSH1 0x40 SWAP1 KECCAK256 DUP1 SLOAD PUSH1 0x1 PUSH1 0x1 PUSH1 0xA0 SHL SUB NOT AND CALLER OR DUP2 SSTORE PUSH1 0x1 ADD PUSH2 0x322 DUP8 DUP10 DUP4 PUSH2 0x155C JUMP JUMPDEST POP PUSH1 0x0 DUP9 DUP2 MSTORE PUSH1 0x2 PUSH1 0x20 DUP2 SWAP1 MSTORE PUSH1 0x40 SWAP1 SWAP2 KECCAK256 ADD PUSH2 0x340 DUP6 DUP8 DUP4 PUSH2 0x155C JUMP JUMPDEST POP PUSH2 0x37E DUP9 DUP5 DUP5 DUP1 DUP1 PUSH1 0x20 MUL PUSH1 0x20 ADD PUSH1 0x40 MLOAD SWAP1 DUP2 ADD PUSH1 0x40 MSTORE DUP1 SWAP4 SWAP3 SWAP2 SWAP1 DUP2 DUP2 MSTORE PUSH1 0x20 ADD DUP4 DUP4 PUSH1 0x20 MUL DUP1 DUP3 DUP5 CALLDATACOPY PUSH1 0x0 SWAP3 ADD SWAP2 SWAP1 SWAP2 MSTORE POP PUSH2 0xEC0 SWAP3 POP POP POP JUMP JUMPDEST PUSH1 0x0 DUP9 DUP2 MSTORE PUSH1 0x2 PUSH1 0x20 MSTORE PUSH1 0x40 SWAP1 DUP2 SWAP1 KECCAK256 PUSH1 0x4 ADD DUP3 SWAP1 SSTORE MLOAD DUP9 SWAP1 PUSH32 0x3E0642ED2C9A291F129CE3736D8E28D75B6665FB730BB7C2116082E34FFD13ED SWAP1 PUSH2 0x3D2 SWAP1 CALLER SWAP1 DUP12 SWAP1 DUP12 SWAP1 DUP12 SWAP1 DUP12 SWAP1 DUP12 SWAP1 DUP12 SWAP1 DUP12 SWAP1 PUSH2 0x1646 JUMP JUMPDEST PUSH1 0x40 MLOAD DUP1 SWAP2 SUB SWAP1 LOG2 POP POP POP POP POP POP POP POP JUMP JUMPDEST PUSH1 0x40 MLOAD DUP2 SWAP1 PUSH32 0xF9AE523DFCCBC09C59A0223BB47CE04AC1262D7AB3B3161CEA8926AC81DBEE3E SWAP1 PUSH1 0x0 SWAP1 LOG2 POP JUMP JUMPDEST PUSH1 0x0 DUP2 PUSH1 0x40 MLOAD PUSH1 0x20 ADD PUSH2 0x425 SWAP2 SWAP1 PUSH2 0x16D0 JUMP JUMPDEST PUSH1 0x40 MLOAD PUSH1 0x20 DUP2 DUP4 SUB SUB DUP2 MSTORE SWAP1 PUSH1 0x40 MSTORE DUP1 MLOAD SWAP1 PUSH1 0x20 ADD KECCAK256 DUP4 PUSH1 0x40 MLOAD PUSH1 0x20 ADD PUSH2 0x44C SWAP2 SWAP1 PUSH2 0x16D0 JUMP JUMPDEST PUSH1 0x40 MLOAD PUSH1 0x20 DUP2 DUP4 SUB SUB DUP2 MSTORE SWAP1 PUSH1 0x40 MSTORE DUP1 MLOAD SWAP1 PUSH1 0x20 ADD KECCAK256 EQ SWAP1 POP JUMPDEST SWAP3 SWAP2 POP POP JUMP JUMPDEST PUSH1 0x0 DUP5 DUP5 DUP5 DUP5 PUSH1 0x40 MLOAD PUSH1 0x20 ADD PUSH2 0x485 SWAP5 SWAP4 SWAP3 SWAP2 SWAP1 PUSH2 0x16EC JUMP JUMPDEST PUSH1 0x40 MLOAD PUSH1 0x20 DUP2 DUP4 SUB SUB DUP2 MSTORE SWAP1 PUSH1 0x40 MSTORE SWAP1 POP PUSH1 0x0 DUP2 PUSH1 0x40 MLOAD PUSH1 0x20 ADD PUSH2 0x4A9 SWAP2 SWAP1 PUSH2 0x16D0 JUMP JUMPDEST PUSH1 0x40 MLOAD PUSH1 0x20 DUP2 DUP4 SUB SUB DUP2 MSTORE SWAP1 PUSH1 0x40 MSTORE DUP1 MLOAD SWAP1 PUSH1 0x20 ADD KECCAK256 SWAP1 POP DUP8 DUP2 EQ PUSH2 0x506 JUMPI PUSH1 0x40 MLOAD PUSH3 0x461BCD PUSH1 0xE5 SHL DUP2 MSTORE PUSH1 0x20 PUSH1 0x4 DUP3 ADD MSTORE PUSH1 0x13 PUSH1 0x24 DUP3 ADD MSTORE PUSH19 0x125B9D985B1A59081C1C9BDC1BDCD85B081251 PUSH1 0x6A SHL PUSH1 0x44 DUP3 ADD MSTORE PUSH1 0x64 ADD PUSH2 0x2ED JUMP JUMPDEST PUSH2 0x57E CALLER PUSH1 0x2 PUSH1 0x0 DUP11 DUP2 MSTORE PUSH1 0x20 ADD SWAP1 DUP2 MSTORE PUSH1 0x20 ADD PUSH1 0x0 KECCAK256 PUSH1 0x3 ADD DUP1 SLOAD DUP1 PUSH1 0x20 MUL PUSH1 0x20 ADD PUSH1 0x40 MLOAD SWAP1 DUP2 ADD PUSH1 0x40 MSTORE DUP1 SWAP3 SWAP2 SWAP1 DUP2 DUP2 MSTORE PUSH1 0x20 ADD DUP3 DUP1 SLOAD DUP1 ISZERO PUSH2 0x574 JUMPI PUSH1 0x20 MUL DUP3 ADD SWAP2 SWAP1 PUSH1 0x0 MSTORE PUSH1 0x20 PUSH1 0x0 KECCAK256 SWAP1 JUMPDEST DUP2 SLOAD PUSH1 0x1 PUSH1 0x1 PUSH1 0xA0 SHL SUB AND DUP2 MSTORE PUSH1 0x1 SWAP1 SWAP2 ADD SWAP1 PUSH1 0x20 ADD DUP1 DUP4 GT PUSH2 0x556 JUMPI JUMPDEST POP POP POP POP POP PUSH2 0xB68 JUMP JUMPDEST ISZERO ISZERO PUSH1 0x1 EQ PUSH2 0x5C5 JUMPI PUSH1 0x40 MLOAD PUSH3 0x461BCD PUSH1 0xE5 SHL DUP2 MSTORE PUSH1 0x20 PUSH1 0x4 DUP3 ADD MSTORE PUSH1 0x13 PUSH1 0x24 DUP3 ADD MSTORE PUSH19 0x2727903BB934BA32903832B936B4B9B9B4B7B7 PUSH1 0x69 SHL PUSH1 0x44 DUP3 ADD MSTORE PUSH1 0x64 ADD PUSH2 0x2ED JUMP JUMPDEST PUSH1 0x0 DUP8 DUP2 MSTORE PUSH1 0x2 PUSH1 0x20 MSTORE PUSH1 0x40 SWAP1 KECCAK256 PUSH1 0x1 ADD DUP1 SLOAD PUSH2 0x6A0 SWAP2 SWAP1 PUSH2 0x5E6 SWAP1 PUSH2 0x14D4 JUMP JUMPDEST DUP1 PUSH1 0x1F ADD PUSH1 0x20 DUP1 SWAP2 DIV MUL PUSH1 0x20 ADD PUSH1 0x40 MLOAD SWAP1 DUP2 ADD PUSH1 0x40 MSTORE DUP1 SWAP3 SWAP2 SWAP1 DUP2 DUP2 MSTORE PUSH1 0x20 ADD DUP3 DUP1 SLOAD PUSH2 0x612 SWAP1 PUSH2 0x14D4 JUMP JUMPDEST DUP1 ISZERO PUSH2 0x65F JUMPI DUP1 PUSH1 0x1F LT PUSH2 0x634 JUMPI PUSH2 0x100 DUP1 DUP4 SLOAD DIV MUL DUP4 MSTORE SWAP2 PUSH1 0x20 ADD SWAP2 PUSH2 0x65F JUMP JUMPDEST DUP3 ADD SWAP2 SWAP1 PUSH1 0x0 MSTORE PUSH1 0x20 PUSH1 0x0 KECCAK256 SWAP1 JUMPDEST DUP2 SLOAD DUP2 MSTORE SWAP1 PUSH1 0x1 ADD SWAP1 PUSH1 0x20 ADD DUP1 DUP4 GT PUSH2 0x642 JUMPI DUP3 SWAP1 SUB PUSH1 0x1F AND DUP3 ADD SWAP2 JUMPDEST POP POP POP POP POP DUP8 DUP8 DUP1 DUP1 PUSH1 0x1F ADD PUSH1 0x20 DUP1 SWAP2 DIV MUL PUSH1 0x20 ADD PUSH1 0x40 MLOAD SWAP1 DUP2 ADD PUSH1 0x40 MSTORE DUP1 SWAP4 SWAP3 SWAP2 SWAP1 DUP2 DUP2 MSTORE PUSH1 0x20 ADD DUP4 DUP4 DUP1 DUP3 DUP5 CALLDATACOPY PUSH1 0x0 SWAP3 ADD SWAP2 SWAP1 SWAP2 MSTORE POP PUSH2 0x412 SWAP3 POP POP POP JUMP JUMPDEST ISZERO ISZERO PUSH1 0x1 EQ PUSH2 0x6EA JUMPI PUSH1 0x40 MLOAD PUSH3 0x461BCD PUSH1 0xE5 SHL DUP2 MSTORE PUSH1 0x20 PUSH1 0x4 DUP3 ADD MSTORE PUSH1 0x16 PUSH1 0x24 DUP3 ADD MSTORE PUSH22 0x4E4F54206D61746368696E672066696C65206E616D65 PUSH1 0x50 SHL PUSH1 0x44 DUP3 ADD MSTORE PUSH1 0x64 ADD PUSH2 0x2ED JUMP JUMPDEST PUSH2 0x760 CALLER PUSH1 0x3 PUSH1 0x0 DUP11 DUP2 MSTORE PUSH1 0x20 ADD SWAP1 DUP2 MSTORE PUSH1 0x20 ADD PUSH1 0x0 KECCAK256 PUSH1 0x3 ADD DUP1 SLOAD DUP1 PUSH1 0x20 MUL PUSH1 0x20 ADD PUSH1 0x40 MLOAD SWAP1 DUP2 ADD PUSH1 0x40 MSTORE DUP1 SWAP3 SWAP2 SWAP1 DUP2 DUP2 MSTORE PUSH1 0x20 ADD DUP3 DUP1 SLOAD DUP1 ISZERO PUSH2 0x574 JUMPI PUSH1 0x20 MUL DUP3 ADD SWAP2 SWAP1 PUSH1 0x0 MSTORE PUSH1 0x20 PUSH1 0x0 KECCAK256 SWAP1 DUP2 SLOAD PUSH1 0x1 PUSH1 0x1 PUSH1 0xA0 SHL SUB AND DUP2 MSTORE PUSH1 0x1 SWAP1 SWAP2 ADD SWAP1 PUSH1 0x20 ADD DUP1 DUP4 GT PUSH2 0x556 JUMPI POP POP POP POP POP PUSH2 0xB68 JUMP JUMPDEST ISZERO ISZERO PUSH1 0x0 SUB PUSH2 0x8D4 JUMPI PUSH1 0x0 DUP9 DUP2 MSTORE PUSH1 0x3 PUSH1 0x20 DUP2 DUP2 MSTORE PUSH1 0x40 DUP4 KECCAK256 SWAP2 DUP3 ADD DUP1 SLOAD PUSH1 0x1 DUP2 DUP2 ADD DUP4 SSTORE SWAP2 DUP6 MSTORE SWAP2 DUP5 KECCAK256 SWAP1 SWAP2 ADD DUP1 SLOAD PUSH1 0x1 PUSH1 0x1 PUSH1 0xA0 SHL SUB NOT AND CALLER OR SWAP1 SSTORE SWAP2 DUP11 SWAP1 MSTORE DUP9 DUP2 SSTORE ADD PUSH2 0x7B1 DUP7 DUP9 DUP4 PUSH2 0x155C JUMP JUMPDEST POP PUSH1 0x0 DUP9 DUP2 MSTORE PUSH1 0x3 PUSH1 0x20 MSTORE PUSH1 0x40 SWAP1 KECCAK256 PUSH1 0x2 ADD PUSH2 0x7CE DUP5 DUP7 DUP4 PUSH2 0x155C JUMP JUMPDEST POP PUSH1 0x0 DUP9 DUP2 MSTORE PUSH1 0x3 PUSH1 0x20 MSTORE PUSH1 0x40 SWAP1 DUP2 SWAP1 KECCAK256 DUP1 SLOAD SWAP2 MLOAD DUP11 SWAP2 PUSH32 0xAE0ECC26408637002F5D1E9F1143095AEF0D20BD60FE289A7DF720F50A021791 SWAP2 PUSH2 0x81B SWAP2 PUSH1 0x1 DUP2 ADD SWAP2 PUSH1 0x2 SWAP1 SWAP2 ADD SWAP1 PUSH2 0x178B JUMP JUMPDEST PUSH1 0x40 MLOAD DUP1 SWAP2 SUB SWAP1 LOG3 PUSH1 0x0 DUP9 DUP2 MSTORE PUSH1 0x3 PUSH1 0x20 DUP2 DUP2 MSTORE PUSH1 0x40 DUP1 DUP5 KECCAK256 DUP1 SLOAD DUP6 MSTORE PUSH1 0x2 DUP4 MSTORE SWAP1 DUP5 KECCAK256 PUSH1 0x4 ADD SLOAD SWAP4 DUP13 SWAP1 MSTORE SWAP1 DUP3 SWAP1 MSTORE ADD SLOAD LT PUSH2 0x8D4 JUMPI PUSH1 0x0 DUP9 DUP2 MSTORE PUSH1 0x3 PUSH1 0x20 SWAP1 DUP2 MSTORE PUSH1 0x40 DUP1 DUP4 KECCAK256 DUP1 SLOAD DUP5 MSTORE PUSH1 0x2 SWAP3 DUP4 SWAP1 MSTORE SWAP3 KECCAK256 PUSH1 0x1 ADD SWAP2 PUSH2 0x87E SWAP2 ADD DUP3 PUSH2 0x17B9 JUMP JUMPDEST POP PUSH1 0x0 DUP9 DUP2 MSTORE PUSH1 0x3 PUSH1 0x20 MSTORE PUSH1 0x40 SWAP1 DUP2 SWAP1 KECCAK256 DUP1 SLOAD SWAP2 MLOAD DUP11 SWAP2 PUSH32 0xEB903A069C935D0F3438435136CA85414BC56C7B332AFCD672FCD634BA5861C3 SWAP2 PUSH2 0x8CB SWAP2 PUSH1 0x1 DUP2 ADD SWAP2 PUSH1 0x2 SWAP1 SWAP2 ADD SWAP1 PUSH2 0x178B JUMP JUMPDEST PUSH1 0x40 MLOAD DUP1 SWAP2 SUB SWAP1 LOG3 JUMPDEST POP POP POP POP POP POP POP POP JUMP JUMPDEST PUSH2 0x8E6 PUSH2 0xF46 JUMP JUMPDEST PUSH2 0x8F0 PUSH1 0x0 PUSH2 0xFA0 JUMP JUMPDEST JUMP JUMPDEST PUSH1 0x3 PUSH1 0x20 MSTORE PUSH1 0x0 SWAP1 DUP2 MSTORE PUSH1 0x40 SWAP1 KECCAK256 DUP1 SLOAD PUSH1 0x1 DUP3 ADD DUP1 SLOAD SWAP2 SWAP3 SWAP2 PUSH2 0x914 SWAP1 PUSH2 0x14D4 JUMP JUMPDEST DUP1 PUSH1 0x1F ADD PUSH1 0x20 DUP1 SWAP2 DIV MUL PUSH1 0x20 ADD PUSH1 0x40 MLOAD SWAP1 DUP2 ADD PUSH1 0x40 MSTORE DUP1 SWAP3 SWAP2 SWAP1 DUP2 DUP2 MSTORE PUSH1 0x20 ADD DUP3 DUP1 SLOAD PUSH2 0x940 SWAP1 PUSH2 0x14D4 JUMP JUMPDEST DUP1 ISZERO PUSH2 0x98D JUMPI DUP1 PUSH1 0x1F LT PUSH2 0x962 JUMPI PUSH2 0x100 DUP1 DUP4 SLOAD DIV MUL DUP4 MSTORE SWAP2 PUSH1 0x20 ADD SWAP2 PUSH2 0x98D JUMP JUMPDEST DUP3 ADD SWAP2 SWAP1 PUSH1 0x0 MSTORE PUSH1 0x20 PUSH1 0x0 KECCAK256 SWAP1 JUMPDEST DUP2 SLOAD DUP2 MSTORE SWAP1 PUSH1 0x1 ADD SWAP1 PUSH1 0x20 ADD DUP1 DUP4 GT PUSH2 0x970 JUMPI DUP3 SWAP1 SUB PUSH1 0x1F AND DUP3 ADD SWAP2 JUMPDEST POP POP POP POP POP SWAP1 DUP1 PUSH1 0x2 ADD DUP1 SLOAD PUSH2 0x9A2 SWAP1 PUSH2 0x14D4 JUMP JUMPDEST DUP1 PUSH1 0x1F ADD PUSH1 0x20 DUP1 SWAP2 DIV MUL PUSH1 0x20 ADD PUSH1 0x40 MLOAD SWAP1 DUP2 ADD PUSH1 0x40 MSTORE DUP1 SWAP3 SWAP2 SWAP1 DUP2 DUP2 MSTORE PUSH1 0x20 ADD DUP3 DUP1 SLOAD PUSH2 0x9CE SWAP1 PUSH2 0x14D4 JUMP JUMPDEST DUP1 ISZERO PUSH2 0xA1B JUMPI DUP1 PUSH1 0x1F LT PUSH2 0x9F0 JUMPI PUSH2 0x100 DUP1 DUP4 SLOAD DIV MUL DUP4 MSTORE SWAP2 PUSH1 0x20 ADD SWAP2 PUSH2 0xA1B JUMP JUMPDEST DUP3 ADD SWAP2 SWAP1 PUSH1 0x0 MSTORE PUSH1 0x20 PUSH1 0x0 KECCAK256 SWAP1 JUMPDEST DUP2 SLOAD DUP2 MSTORE SWAP1 PUSH1 0x1 ADD SWAP1 PUSH1 0x20 ADD DUP1 DUP4 GT PUSH2 0x9FE JUMPI DUP3 SWAP1 SUB PUSH1 0x1F AND DUP3 ADD SWAP2 JUMPDEST POP POP POP POP POP SWAP1 POP DUP4 JUMP JUMPDEST PUSH1 0x2 PUSH1 0x20 MSTORE PUSH1 0x0 SWAP1 DUP2 MSTORE PUSH1 0x40 SWAP1 KECCAK256 DUP1 SLOAD PUSH1 0x1 DUP3 ADD DUP1 SLOAD PUSH1 0x1 PUSH1 0x1 PUSH1 0xA0 SHL SUB SWAP1 SWAP3 AND SWAP3 SWAP2 PUSH2 0xA51 SWAP1 PUSH2 0x14D4 JUMP JUMPDEST DUP1 PUSH1 0x1F ADD PUSH1 0x20 DUP1 SWAP2 DIV MUL PUSH1 0x20 ADD PUSH1 0x40 MLOAD SWAP1 DUP2 ADD PUSH1 0x40 MSTORE DUP1 SWAP3 SWAP2 SWAP1 DUP2 DUP2 MSTORE PUSH1 0x20 ADD DUP3 DUP1 SLOAD PUSH2 0xA7D SWAP1 PUSH2 0x14D4 JUMP JUMPDEST DUP1 ISZERO PUSH2 0xACA JUMPI DUP1 PUSH1 0x1F LT PUSH2 0xA9F JUMPI PUSH2 0x100 DUP1 DUP4 SLOAD DIV MUL DUP4 MSTORE SWAP2 PUSH1 0x20 ADD SWAP2 PUSH2 0xACA JUMP JUMPDEST DUP3 ADD SWAP2 SWAP1 PUSH1 0x0 MSTORE PUSH1 0x20 PUSH1 0x0 KECCAK256 SWAP1 JUMPDEST DUP2 SLOAD DUP2 MSTORE SWAP1 PUSH1 0x1 ADD SWAP1 PUSH1 0x20 ADD DUP1 DUP4 GT PUSH2 0xAAD JUMPI DUP3 SWAP1 SUB PUSH1 0x1F AND DUP3 ADD SWAP2 JUMPDEST POP POP POP POP POP SWAP1 DUP1 PUSH1 0x2 ADD DUP1 SLOAD PUSH2 0xADF SWAP1 PUSH2 0x14D4 JUMP JUMPDEST DUP1 PUSH1 0x1F ADD PUSH1 0x20 DUP1 SWAP2 DIV MUL PUSH1 0x20 ADD PUSH1 0x40 MLOAD SWAP1 DUP2 ADD PUSH1 0x40 MSTORE DUP1 SWAP3 SWAP2 SWAP1 DUP2 DUP2 MSTORE PUSH1 0x20 ADD DUP3 DUP1 SLOAD PUSH2 0xB0B SWAP1 PUSH2 0x14D4 JUMP JUMPDEST DUP1 ISZERO PUSH2 0xB58 JUMPI DUP1 PUSH1 0x1F LT PUSH2 0xB2D JUMPI PUSH2 0x100 DUP1 DUP4 SLOAD DIV MUL DUP4 MSTORE SWAP2 PUSH1 0x20 ADD SWAP2 PUSH2 0xB58 JUMP JUMPDEST DUP3 ADD SWAP2 SWAP1 PUSH1 0x0 MSTORE PUSH1 0x20 PUSH1 0x0 KECCAK256 SWAP1 JUMPDEST DUP2 SLOAD DUP2 MSTORE SWAP1 PUSH1 0x1 ADD SWAP1 PUSH1 0x20 ADD DUP1 DUP4 GT PUSH2 0xB3B JUMPI DUP3 SWAP1 SUB PUSH1 0x1F AND DUP3 ADD SWAP2 JUMPDEST POP POP POP POP POP SWAP1 DUP1 PUSH1 0x4 ADD SLOAD SWAP1 POP DUP5 JUMP JUMPDEST PUSH1 0x0 DUP1 JUMPDEST DUP3 MLOAD DUP2 LT ISZERO PUSH2 0xBC3 JUMPI DUP4 PUSH1 0x1 PUSH1 0x1 PUSH1 0xA0 SHL SUB AND DUP4 DUP3 DUP2 MLOAD DUP2 LT PUSH2 0xB91 JUMPI PUSH2 0xB91 PUSH2 0x1896 JUMP JUMPDEST PUSH1 0x20 MUL PUSH1 0x20 ADD ADD MLOAD PUSH1 0x1 PUSH1 0x1 PUSH1 0xA0 SHL SUB AND SUB PUSH2 0xBB1 JUMPI PUSH1 0x1 SWAP2 POP POP PUSH2 0x466 JUMP JUMPDEST DUP1 PUSH2 0xBBB DUP2 PUSH2 0x18AC JUMP JUMPDEST SWAP2 POP POP PUSH2 0xB6C JUMP JUMPDEST POP PUSH1 0x0 SWAP4 SWAP3 POP POP POP JUMP JUMPDEST PUSH1 0x0 DUP2 DUP2 MSTORE PUSH1 0x3 PUSH1 0x20 DUP2 DUP2 MSTORE PUSH1 0x40 DUP1 DUP5 KECCAK256 SLOAD DUP5 MSTORE PUSH1 0x2 DUP3 MSTORE SWAP3 DUP4 SWAP1 KECCAK256 SWAP1 SWAP2 ADD DUP1 SLOAD DUP4 MLOAD DUP2 DUP5 MUL DUP2 ADD DUP5 ADD SWAP1 SWAP5 MSTORE DUP1 DUP5 MSTORE PUSH2 0xC48 SWAP4 CALLER SWAP4 SWAP1 SWAP3 SWAP2 SWAP1 DUP4 ADD DUP3 DUP3 DUP1 ISZERO PUSH2 0x574 JUMPI PUSH1 0x20 MUL DUP3 ADD SWAP2 SWAP1 PUSH1 0x0 MSTORE PUSH1 0x20 PUSH1 0x0 KECCAK256 SWAP1 DUP2 SLOAD PUSH1 0x1 PUSH1 0x1 PUSH1 0xA0 SHL SUB AND DUP2 MSTORE PUSH1 0x1 SWAP1 SWAP2 ADD SWAP1 PUSH1 0x20 ADD DUP1 DUP4 GT PUSH2 0x556 JUMPI POP POP POP POP POP PUSH2 0xB68 JUMP JUMPDEST ISZERO ISZERO PUSH1 0x1 EQ PUSH2 0xC90 JUMPI PUSH1 0x40 MLOAD PUSH3 0x461BCD PUSH1 0xE5 SHL DUP2 MSTORE PUSH1 0x20 PUSH1 0x4 DUP3 ADD MSTORE PUSH1 0x14 PUSH1 0x24 DUP3 ADD MSTORE PUSH20 0x2727903B37BA34B733903832B936B4B9B9B4B7B7 PUSH1 0x61 SHL PUSH1 0x44 DUP3 ADD MSTORE PUSH1 0x64 ADD PUSH2 0x2ED JUMP JUMPDEST PUSH2 0xD06 CALLER PUSH1 0x3 PUSH1 0x0 DUP5 DUP2 MSTORE PUSH1 0x20 ADD SWAP1 DUP2 MSTORE PUSH1 0x20 ADD PUSH1 0x0 KECCAK256 PUSH1 0x3 ADD DUP1 SLOAD DUP1 PUSH1 0x20 MUL PUSH1 0x20 ADD PUSH1 0x40 MLOAD SWAP1 DUP2 ADD PUSH1 0x40 MSTORE DUP1 SWAP3 SWAP2 SWAP1 DUP2 DUP2 MSTORE PUSH1 0x20 ADD DUP3 DUP1 SLOAD DUP1 ISZERO PUSH2 0x574 JUMPI PUSH1 0x20 MUL DUP3 ADD SWAP2 SWAP1 PUSH1 0x0 MSTORE PUSH1 0x20 PUSH1 0x0 KECCAK256 SWAP1 DUP2 SLOAD PUSH1 0x1 PUSH1 0x1 PUSH1 0xA0 SHL SUB AND DUP2 MSTORE PUSH1 0x1 SWAP1 SWAP2 ADD SWAP1 PUSH1 0x20 ADD DUP1 DUP4 GT PUSH2 0x556 JUMPI POP POP POP POP POP PUSH2 0xB68 JUMP JUMPDEST ISZERO PUSH2 0xD43 JUMPI PUSH1 0x40 MLOAD PUSH3 0x461BCD PUSH1 0xE5 SHL DUP2 MSTORE PUSH1 0x20 PUSH1 0x4 DUP3 ADD MSTORE PUSH1 0xD PUSH1 0x24 DUP3 ADD MSTORE PUSH13 0x105B1C9958591E481D9BDD1959 PUSH1 0x9A SHL PUSH1 0x44 DUP3 ADD MSTORE PUSH1 0x64 ADD PUSH2 0x2ED JUMP JUMPDEST PUSH1 0x0 DUP2 DUP2 MSTORE PUSH1 0x3 PUSH1 0x20 DUP2 DUP2 MSTORE PUSH1 0x40 DUP1 DUP5 KECCAK256 DUP1 DUP5 ADD DUP1 SLOAD PUSH1 0x1 DUP2 ADD DUP3 SSTORE DUP2 DUP8 MSTORE DUP5 DUP8 KECCAK256 ADD DUP1 SLOAD PUSH1 0x1 PUSH1 0x1 PUSH1 0xA0 SHL SUB NOT AND CALLER OR SWAP1 SSTORE SWAP1 SLOAD DUP6 MSTORE PUSH1 0x2 DUP4 MSTORE SWAP1 DUP5 KECCAK256 PUSH1 0x4 ADD SLOAD SWAP4 DUP6 SWAP1 MSTORE SWAP2 SWAP1 MSTORE SLOAD LT PUSH2 0xE14 JUMPI PUSH1 0x0 DUP2 DUP2 MSTORE PUSH1 0x3 PUSH1 0x20 SWAP1 DUP2 MSTORE PUSH1 0x40 DUP1 DUP4 KECCAK256 DUP1 SLOAD DUP5 MSTORE PUSH1 0x2 SWAP3 DUP4 SWAP1 MSTORE SWAP3 KECCAK256 PUSH1 0x1 ADD SWAP2 PUSH2 0xDBE SWAP2 ADD DUP3 PUSH2 0x17B9 JUMP JUMPDEST POP PUSH1 0x0 DUP2 DUP2 MSTORE PUSH1 0x3 PUSH1 0x20 MSTORE PUSH1 0x40 SWAP1 DUP2 SWAP1 KECCAK256 DUP1 SLOAD SWAP2 MLOAD DUP4 SWAP2 PUSH32 0xEB903A069C935D0F3438435136CA85414BC56C7B332AFCD672FCD634BA5861C3 SWAP2 PUSH2 0xE0B SWAP2 PUSH1 0x1 DUP2 ADD SWAP2 PUSH1 0x2 SWAP1 SWAP2 ADD SWAP1 PUSH2 0x178B JUMP JUMPDEST PUSH1 0x40 MLOAD DUP1 SWAP2 SUB SWAP1 LOG3 JUMPDEST POP JUMP JUMPDEST PUSH2 0xE1F PUSH2 0xF46 JUMP JUMPDEST PUSH1 0x1 PUSH1 0x1 PUSH1 0xA0 SHL SUB DUP2 AND PUSH2 0xE84 JUMPI PUSH1 0x40 MLOAD PUSH3 0x461BCD PUSH1 0xE5 SHL DUP2 MSTORE PUSH1 0x20 PUSH1 0x4 DUP3 ADD MSTORE PUSH1 0x26 PUSH1 0x24 DUP3 ADD MSTORE PUSH32 0x4F776E61626C653A206E6577206F776E657220697320746865207A65726F2061 PUSH1 0x44 DUP3 ADD MSTORE PUSH6 0x646472657373 PUSH1 0xD0 SHL PUSH1 0x64 DUP3 ADD MSTORE PUSH1 0x84 ADD PUSH2 0x2ED JUMP JUMPDEST PUSH2 0xE14 DUP2 PUSH2 0xFA0 JUMP JUMPDEST PUSH2 0xE95 PUSH2 0xF46 JUMP JUMPDEST PUSH1 0x1 PUSH1 0x1 PUSH1 0xA0 SHL SUB SWAP2 SWAP1 SWAP2 AND PUSH1 0x0 SWAP1 DUP2 MSTORE PUSH1 0x1 PUSH1 0x20 MSTORE PUSH1 0x40 SWAP1 KECCAK256 DUP1 SLOAD PUSH1 0xFF NOT AND SWAP2 ISZERO ISZERO SWAP2 SWAP1 SWAP2 OR SWAP1 SSTORE JUMP JUMPDEST PUSH1 0x0 JUMPDEST DUP2 MLOAD DUP2 LT ISZERO PUSH2 0xF41 JUMPI PUSH1 0x2 PUSH1 0x0 DUP5 DUP2 MSTORE PUSH1 0x20 ADD SWAP1 DUP2 MSTORE PUSH1 0x20 ADD PUSH1 0x0 KECCAK256 PUSH1 0x3 ADD DUP3 DUP3 DUP2 MLOAD DUP2 LT PUSH2 0xEF4 JUMPI PUSH2 0xEF4 PUSH2 0x1896 JUMP JUMPDEST PUSH1 0x20 SWAP1 DUP2 MUL SWAP2 SWAP1 SWAP2 ADD DUP2 ADD MLOAD DUP3 SLOAD PUSH1 0x1 DUP2 ADD DUP5 SSTORE PUSH1 0x0 SWAP4 DUP5 MSTORE SWAP2 SWAP1 SWAP3 KECCAK256 ADD DUP1 SLOAD PUSH1 0x1 PUSH1 0x1 PUSH1 0xA0 SHL SUB NOT AND PUSH1 0x1 PUSH1 0x1 PUSH1 0xA0 SHL SUB SWAP1 SWAP3 AND SWAP2 SWAP1 SWAP2 OR SWAP1 SSTORE DUP1 PUSH2 0xF39 DUP2 PUSH2 0x18AC JUMP JUMPDEST SWAP2 POP POP PUSH2 0xEC3 JUMP JUMPDEST POP POP POP JUMP JUMPDEST PUSH1 0x0 SLOAD PUSH1 0x1 PUSH1 0x1 PUSH1 0xA0 SHL SUB AND CALLER EQ PUSH2 0x8F0 JUMPI PUSH1 0x40 MLOAD PUSH3 0x461BCD PUSH1 0xE5 SHL DUP2 MSTORE PUSH1 0x20 PUSH1 0x4 DUP3 ADD DUP2 SWAP1 MSTORE PUSH1 0x24 DUP3 ADD MSTORE PUSH32 0x4F776E61626C653A2063616C6C6572206973206E6F7420746865206F776E6572 PUSH1 0x44 DUP3 ADD MSTORE PUSH1 0x64 ADD PUSH2 0x2ED JUMP JUMPDEST PUSH1 0x0 DUP1 SLOAD PUSH1 0x1 PUSH1 0x1 PUSH1 0xA0 SHL SUB DUP4 DUP2 AND PUSH1 0x1 PUSH1 0x1 PUSH1 0xA0 SHL SUB NOT DUP4 AND DUP2 OR DUP5 SSTORE PUSH1 0x40 MLOAD SWAP2 SWAP1 SWAP3 AND SWAP3 DUP4 SWAP2 PUSH32 0x8BE0079C531659141344CD1FD0A4F28419497F9722A3DAAFE3B4186F6B6457E0 SWAP2 SWAP1 LOG3 POP POP JUMP JUMPDEST PUSH1 0x0 DUP1 DUP4 PUSH1 0x1F DUP5 ADD SLT PUSH2 0x1002 JUMPI PUSH1 0x0 DUP1 REVERT JUMPDEST POP DUP2 CALLDATALOAD PUSH8 0xFFFFFFFFFFFFFFFF DUP2 GT ISZERO PUSH2 0x101A JUMPI PUSH1 0x0 DUP1 REVERT JUMPDEST PUSH1 0x20 DUP4 ADD SWAP2 POP DUP4 PUSH1 0x20 DUP3 DUP6 ADD ADD GT ISZERO PUSH2 0x1032 JUMPI PUSH1 0x0 DUP1 REVERT JUMPDEST SWAP3 POP SWAP3 SWAP1 POP JUMP JUMPDEST PUSH1 0x0 DUP1 PUSH1 0x0 DUP1 PUSH1 0x0 DUP1 PUSH1 0x0 DUP1 PUSH1 0xA0 DUP10 DUP12 SUB SLT ISZERO PUSH2 0x1055 JUMPI PUSH1 0x0 DUP1 REVERT JUMPDEST DUP9 CALLDATALOAD SWAP8 POP PUSH1 0x20 DUP10 ADD CALLDATALOAD PUSH8 0xFFFFFFFFFFFFFFFF DUP1 DUP3 GT ISZERO PUSH2 0x1074 JUMPI PUSH1 0x0 DUP1 REVERT JUMPDEST PUSH2 0x1080 DUP13 DUP4 DUP14 ADD PUSH2 0xFF0 JUMP JUMPDEST SWAP1 SWAP10 POP SWAP8 POP PUSH1 0x40 DUP12 ADD CALLDATALOAD SWAP2 POP DUP1 DUP3 GT ISZERO PUSH2 0x1099 JUMPI PUSH1 0x0 DUP1 REVERT JUMPDEST PUSH2 0x10A5 DUP13 DUP4 DUP14 ADD PUSH2 0xFF0 JUMP JUMPDEST SWAP1 SWAP8 POP SWAP6 POP PUSH1 0x60 DUP12 ADD CALLDATALOAD SWAP2 POP DUP1 DUP3 GT ISZERO PUSH2 0x10BE JUMPI PUSH1 0x0 DUP1 REVERT JUMPDEST DUP2 DUP12 ADD SWAP2 POP DUP12 PUSH1 0x1F DUP4 ADD SLT PUSH2 0x10D2 JUMPI PUSH1 0x0 DUP1 REVERT JUMPDEST DUP2 CALLDATALOAD DUP2 DUP2 GT ISZERO PUSH2 0x10E1 JUMPI PUSH1 0x0 DUP1 REVERT JUMPDEST DUP13 PUSH1 0x20 DUP3 PUSH1 0x5 SHL DUP6 ADD ADD GT ISZERO PUSH2 0x10F6 JUMPI PUSH1 0x0 DUP1 REVERT JUMPDEST PUSH1 0x20 DUP4 ADD SWAP6 POP DUP1 SWAP5 POP POP POP POP PUSH1 0x80 DUP10 ADD CALLDATALOAD SWAP1 POP SWAP3 SWAP6 SWAP9 POP SWAP3 SWAP6 SWAP9 SWAP1 SWAP4 SWAP7 POP JUMP JUMPDEST PUSH1 0x0 PUSH1 0x20 DUP3 DUP5 SUB SLT ISZERO PUSH2 0x1128 JUMPI PUSH1 0x0 DUP1 REVERT JUMPDEST POP CALLDATALOAD SWAP2 SWAP1 POP JUMP JUMPDEST PUSH4 0x4E487B71 PUSH1 0xE0 SHL PUSH1 0x0 MSTORE PUSH1 0x41 PUSH1 0x4 MSTORE PUSH1 0x24 PUSH1 0x0 REVERT JUMPDEST PUSH1 0x40 MLOAD PUSH1 0x1F DUP3 ADD PUSH1 0x1F NOT AND DUP2 ADD PUSH8 0xFFFFFFFFFFFFFFFF DUP2 GT DUP3 DUP3 LT OR ISZERO PUSH2 0x116E JUMPI PUSH2 0x116E PUSH2 0x112F JUMP JUMPDEST PUSH1 0x40 MSTORE SWAP2 SWAP1 POP JUMP JUMPDEST PUSH1 0x0 DUP3 PUSH1 0x1F DUP4 ADD SLT PUSH2 0x1187 JUMPI PUSH1 0x0 DUP1 REVERT JUMPDEST DUP2 CALLDATALOAD PUSH8 0xFFFFFFFFFFFFFFFF DUP2 GT ISZERO PUSH2 0x11A1 JUMPI PUSH2 0x11A1 PUSH2 0x112F JUMP JUMPDEST PUSH2 0x11B4 PUSH1 0x1F DUP3 ADD PUSH1 0x1F NOT AND PUSH1 0x20 ADD PUSH2 0x1145 JUMP JUMPDEST DUP2 DUP2 MSTORE DUP5 PUSH1 0x20 DUP4 DUP7 ADD ADD GT ISZERO PUSH2 0x11C9 JUMPI PUSH1 0x0 DUP1 REVERT JUMPDEST DUP2 PUSH1 0x20 DUP6 ADD PUSH1 0x20 DUP4 ADD CALLDATACOPY PUSH1 0x0 SWAP2 DUP2 ADD PUSH1 0x20 ADD SWAP2 SWAP1 SWAP2 MSTORE SWAP4 SWAP3 POP POP POP JUMP JUMPDEST PUSH1 0x0 DUP1 PUSH1 0x40 DUP4 DUP6 SUB SLT ISZERO PUSH2 0x11F9 JUMPI PUSH1 0x0 DUP1 REVERT JUMPDEST DUP3 CALLDATALOAD PUSH8 0xFFFFFFFFFFFFFFFF DUP1 DUP3 GT ISZERO PUSH2 0x1211 JUMPI PUSH1 0x0 DUP1 REVERT JUMPDEST PUSH2 0x121D DUP7 DUP4 DUP8 ADD PUSH2 0x1176 JUMP JUMPDEST SWAP4 POP PUSH1 0x20 DUP6 ADD CALLDATALOAD SWAP2 POP DUP1 DUP3 GT ISZERO PUSH2 0x1233 JUMPI PUSH1 0x0 DUP1 REVERT JUMPDEST POP PUSH2 0x1240 DUP6 DUP3 DUP7 ADD PUSH2 0x1176 JUMP JUMPDEST SWAP2 POP POP SWAP3 POP SWAP3 SWAP1 POP JUMP JUMPDEST PUSH1 0x0 DUP1 PUSH1 0x0 DUP1 PUSH1 0x0 DUP1 PUSH1 0x80 DUP8 DUP10 SUB SLT ISZERO PUSH2 0x1263 JUMPI PUSH1 0x0 DUP1 REVERT JUMPDEST DUP7 CALLDATALOAD SWAP6 POP PUSH1 0x20 DUP8 ADD CALLDATALOAD SWAP5 POP PUSH1 0x40 DUP8 ADD CALLDATALOAD PUSH8 0xFFFFFFFFFFFFFFFF DUP1 DUP3 GT ISZERO PUSH2 0x1289 JUMPI PUSH1 0x0 DUP1 REVERT JUMPDEST PUSH2 0x1295 DUP11 DUP4 DUP12 ADD PUSH2 0xFF0 JUMP JUMPDEST SWAP1 SWAP7 POP SWAP5 POP PUSH1 0x60 DUP10 ADD CALLDATALOAD SWAP2 POP DUP1 DUP3 GT ISZERO PUSH2 0x12AE JUMPI PUSH1 0x0 DUP1 REVERT JUMPDEST POP PUSH2 0x12BB DUP10 DUP3 DUP11 ADD PUSH2 0xFF0 JUMP JUMPDEST SWAP8 SWAP11 SWAP7 SWAP10 POP SWAP5 SWAP8 POP SWAP3 SWAP6 SWAP4 SWAP5 SWAP3 POP POP POP JUMP JUMPDEST DUP1 CALLDATALOAD PUSH1 0x1 PUSH1 0x1 PUSH1 0xA0 SHL SUB DUP2 AND DUP2 EQ PUSH2 0x12E4 JUMPI PUSH1 0x0 DUP1 REVERT JUMPDEST SWAP2 SWAP1 POP JUMP JUMPDEST PUSH1 0x0 PUSH1 0x20 DUP3 DUP5 SUB SLT ISZERO PUSH2 0x12FB JUMPI PUSH1 0x0 DUP1 REVERT JUMPDEST PUSH2 0x1304 DUP3 PUSH2 0x12CD JUMP JUMPDEST SWAP4 SWAP3 POP POP POP JUMP JUMPDEST PUSH1 0x0 JUMPDEST DUP4 DUP2 LT ISZERO PUSH2 0x1326 JUMPI DUP2 DUP2 ADD MLOAD DUP4 DUP3 ADD MSTORE PUSH1 0x20 ADD PUSH2 0x130E JUMP JUMPDEST POP POP PUSH1 0x0 SWAP2 ADD MSTORE JUMP JUMPDEST PUSH1 0x0 DUP2 MLOAD DUP1 DUP5 MSTORE PUSH2 0x1347 DUP2 PUSH1 0x20 DUP7 ADD PUSH1 0x20 DUP7 ADD PUSH2 0x130B JUMP JUMPDEST PUSH1 0x1F ADD PUSH1 0x1F NOT AND SWAP3 SWAP1 SWAP3 ADD PUSH1 0x20 ADD SWAP3 SWAP2 POP POP JUMP JUMPDEST DUP4 DUP2 MSTORE PUSH1 0x60 PUSH1 0x20 DUP3 ADD MSTORE PUSH1 0x0 PUSH2 0x1374 PUSH1 0x60 DUP4 ADD DUP6 PUSH2 0x132F JUMP JUMPDEST DUP3 DUP2 SUB PUSH1 0x40 DUP5 ADD MSTORE PUSH2 0x1386 DUP2 DUP6 PUSH2 0x132F JUMP JUMPDEST SWAP7 SWAP6 POP POP POP POP POP POP JUMP JUMPDEST PUSH1 0x1 PUSH1 0x1 PUSH1 0xA0 SHL SUB DUP6 AND DUP2 MSTORE PUSH1 0x80 PUSH1 0x20 DUP3 ADD DUP2 SWAP1 MSTORE PUSH1 0x0 SWAP1 PUSH2 0x13B4 SWAP1 DUP4 ADD DUP7 PUSH2 0x132F JUMP JUMPDEST DUP3 DUP2 SUB PUSH1 0x40 DUP5 ADD MSTORE PUSH2 0x13C6 DUP2 DUP7 PUSH2 0x132F JUMP JUMPDEST SWAP2 POP POP DUP3 PUSH1 0x60 DUP4 ADD MSTORE SWAP6 SWAP5 POP POP POP POP POP JUMP JUMPDEST PUSH1 0x0 DUP1 PUSH1 0x40 DUP4 DUP6 SUB SLT ISZERO PUSH2 0x13EB JUMPI PUSH1 0x0 DUP1 REVERT JUMPDEST PUSH2 0x13F4 DUP4 PUSH2 0x12CD JUMP JUMPDEST SWAP2 POP PUSH1 0x20 DUP1 DUP5 ADD CALLDATALOAD PUSH8 0xFFFFFFFFFFFFFFFF DUP1 DUP3 GT ISZERO PUSH2 0x1412 JUMPI PUSH1 0x0 DUP1 REVERT JUMPDEST DUP2 DUP7 ADD SWAP2 POP DUP7 PUSH1 0x1F DUP4 ADD SLT PUSH2 0x1426 JUMPI PUSH1 0x0 DUP1 REVERT JUMPDEST DUP2 CALLDATALOAD DUP2 DUP2 GT ISZERO PUSH2 0x1438 JUMPI PUSH2 0x1438 PUSH2 0x112F JUMP JUMPDEST DUP1 PUSH1 0x5 SHL SWAP2 POP PUSH2 0x1449 DUP5 DUP4 ADD PUSH2 0x1145 JUMP JUMPDEST DUP2 DUP2 MSTORE SWAP2 DUP4 ADD DUP5 ADD SWAP2 DUP5 DUP2 ADD SWAP1 DUP10 DUP5 GT ISZERO PUSH2 0x1463 JUMPI PUSH1 0x0 DUP1 REVERT JUMPDEST SWAP4 DUP6 ADD SWAP4 JUMPDEST DUP4 DUP6 LT ISZERO PUSH2 0x1488 JUMPI PUSH2 0x1479 DUP6 PUSH2 0x12CD JUMP JUMPDEST DUP3 MSTORE SWAP4 DUP6 ADD SWAP4 SWAP1 DUP6 ADD SWAP1 PUSH2 0x1468 JUMP JUMPDEST DUP1 SWAP7 POP POP POP POP POP POP POP SWAP3 POP SWAP3 SWAP1 POP JUMP JUMPDEST PUSH1 0x0 DUP1 PUSH1 0x40 DUP4 DUP6 SUB SLT ISZERO PUSH2 0x14AB JUMPI PUSH1 0x0 DUP1 REVERT JUMPDEST PUSH2 0x14B4 DUP4 PUSH2 0x12CD JUMP JUMPDEST SWAP2 POP PUSH1 0x20 DUP4 ADD CALLDATALOAD DUP1 ISZERO ISZERO DUP2 EQ PUSH2 0x14C9 JUMPI PUSH1 0x0 DUP1 REVERT JUMPDEST DUP1 SWAP2 POP POP SWAP3 POP SWAP3 SWAP1 POP JUMP JUMPDEST PUSH1 0x1 DUP2 DUP2 SHR SWAP1 DUP3 AND DUP1 PUSH2 0x14E8 JUMPI PUSH1 0x7F DUP3 AND SWAP2 POP JUMPDEST PUSH1 0x20 DUP3 LT DUP2 SUB PUSH2 0x1508 JUMPI PUSH4 0x4E487B71 PUSH1 0xE0 SHL PUSH1 0x0 MSTORE PUSH1 0x22 PUSH1 0x4 MSTORE PUSH1 0x24 PUSH1 0x0 REVERT JUMPDEST POP SWAP2 SWAP1 POP JUMP JUMPDEST PUSH1 0x1F DUP3 GT ISZERO PUSH2 0xF41 JUMPI PUSH1 0x0 DUP2 DUP2 MSTORE PUSH1 0x20 DUP2 KECCAK256 PUSH1 0x1F DUP6 ADD PUSH1 0x5 SHR DUP2 ADD PUSH1 0x20 DUP7 LT ISZERO PUSH2 0x1535 JUMPI POP DUP1 JUMPDEST PUSH1 0x1F DUP6 ADD PUSH1 0x5 SHR DUP3 ADD SWAP2 POP JUMPDEST DUP2 DUP2 LT ISZERO PUSH2 0x1554 JUMPI DUP3 DUP2 SSTORE PUSH1 0x1 ADD PUSH2 0x1541 JUMP JUMPDEST POP POP POP POP POP POP JUMP JUMPDEST PUSH8 0xFFFFFFFFFFFFFFFF DUP4 GT ISZERO PUSH2 0x1574 JUMPI PUSH2 0x1574 PUSH2 0x112F JUMP JUMPDEST PUSH2 0x1588 DUP4 PUSH2 0x1582 DUP4 SLOAD PUSH2 0x14D4 JUMP JUMPDEST DUP4 PUSH2 0x150E JUMP JUMPDEST PUSH1 0x0 PUSH1 0x1F DUP5 GT PUSH1 0x1 DUP2 EQ PUSH2 0x15BC JUMPI PUSH1 0x0 DUP6 ISZERO PUSH2 0x15A4 JUMPI POP DUP4 DUP3 ADD CALLDATALOAD JUMPDEST PUSH1 0x0 NOT PUSH1 0x3 DUP8 SWAP1 SHL SHR NOT AND PUSH1 0x1 DUP7 SWAP1 SHL OR DUP4 SSTORE PUSH2 0x1616 JUMP JUMPDEST PUSH1 0x0 DUP4 DUP2 MSTORE PUSH1 0x20 SWAP1 KECCAK256 PUSH1 0x1F NOT DUP7 AND SWAP1 DUP4 JUMPDEST DUP3 DUP2 LT ISZERO PUSH2 0x15ED JUMPI DUP7 DUP6 ADD CALLDATALOAD DUP3 SSTORE PUSH1 0x20 SWAP5 DUP6 ADD SWAP5 PUSH1 0x1 SWAP1 SWAP3 ADD SWAP2 ADD PUSH2 0x15CD JUMP JUMPDEST POP DUP7 DUP3 LT ISZERO PUSH2 0x160A JUMPI PUSH1 0x0 NOT PUSH1 0xF8 DUP9 PUSH1 0x3 SHL AND SHR NOT DUP5 DUP8 ADD CALLDATALOAD AND DUP2 SSTORE JUMPDEST POP POP PUSH1 0x1 DUP6 PUSH1 0x1 SHL ADD DUP4 SSTORE JUMPDEST POP POP POP POP POP JUMP JUMPDEST DUP2 DUP4 MSTORE DUP2 DUP2 PUSH1 0x20 DUP6 ADD CALLDATACOPY POP PUSH1 0x0 DUP3 DUP3 ADD PUSH1 0x20 SWAP1 DUP2 ADD SWAP2 SWAP1 SWAP2 MSTORE PUSH1 0x1F SWAP1 SWAP2 ADD PUSH1 0x1F NOT AND SWAP1 SWAP2 ADD ADD SWAP1 JUMP JUMPDEST PUSH1 0x0 PUSH1 0x1 DUP1 PUSH1 0xA0 SHL SUB DUP1 DUP12 AND DUP4 MSTORE PUSH1 0x20 PUSH1 0xA0 DUP2 DUP6 ADD MSTORE PUSH2 0x166A PUSH1 0xA0 DUP6 ADD DUP12 DUP14 PUSH2 0x161D JUMP JUMPDEST DUP5 DUP2 SUB PUSH1 0x40 DUP7 ADD MSTORE PUSH2 0x167D DUP2 DUP11 DUP13 PUSH2 0x161D JUMP JUMPDEST DUP6 DUP2 SUB PUSH1 0x60 DUP8 ADD MSTORE DUP8 DUP2 MSTORE DUP9 SWAP2 POP DUP3 ADD PUSH1 0x0 JUMPDEST DUP9 DUP2 LT ISZERO PUSH2 0x16B5 JUMPI DUP5 PUSH2 0x16A2 DUP5 PUSH2 0x12CD JUMP JUMPDEST AND DUP3 MSTORE SWAP2 DUP4 ADD SWAP2 SWAP1 DUP4 ADD SWAP1 PUSH1 0x1 ADD PUSH2 0x1690 JUMP JUMPDEST POP DUP1 SWAP5 POP POP POP POP POP DUP3 PUSH1 0x80 DUP4 ADD MSTORE SWAP10 SWAP9 POP POP POP POP POP POP POP POP POP JUMP JUMPDEST PUSH1 0x0 DUP3 MLOAD PUSH2 0x16E2 DUP2 DUP5 PUSH1 0x20 DUP8 ADD PUSH2 0x130B JUMP JUMPDEST SWAP2 SWAP1 SWAP2 ADD SWAP3 SWAP2 POP POP JUMP JUMPDEST DUP4 DUP6 DUP3 CALLDATACOPY PUSH1 0x0 DUP5 DUP3 ADD PUSH1 0x0 DUP2 MSTORE DUP4 DUP6 DUP3 CALLDATACOPY PUSH1 0x0 SWAP4 ADD SWAP3 DUP4 MSTORE POP SWAP1 SWAP5 SWAP4 POP POP POP POP JUMP JUMPDEST PUSH1 0x0 DUP2 SLOAD PUSH2 0x171B DUP2 PUSH2 0x14D4 JUMP JUMPDEST DUP1 DUP6 MSTORE PUSH1 0x20 PUSH1 0x1 DUP4 DUP2 AND DUP1 ISZERO PUSH2 0x1738 JUMPI PUSH1 0x1 DUP2 EQ PUSH2 0x1752 JUMPI PUSH2 0x1780 JUMP JUMPDEST PUSH1 0xFF NOT DUP6 AND DUP9 DUP5 ADD MSTORE DUP4 ISZERO ISZERO PUSH1 0x5 SHL DUP9 ADD DUP4 ADD SWAP6 POP PUSH2 0x1780 JUMP JUMPDEST DUP7 PUSH1 0x0 MSTORE DUP3 PUSH1 0x0 KECCAK256 PUSH1 0x0 JUMPDEST DUP6 DUP2 LT ISZERO PUSH2 0x1778 JUMPI DUP2 SLOAD DUP11 DUP3 ADD DUP7 ADD MSTORE SWAP1 DUP4 ADD SWAP1 DUP5 ADD PUSH2 0x175D JUMP JUMPDEST DUP10 ADD DUP5 ADD SWAP7 POP POP JUMPDEST POP POP POP POP POP SWAP3 SWAP2 POP POP JUMP JUMPDEST PUSH1 0x40 DUP2 MSTORE PUSH1 0x0 PUSH2 0x179E PUSH1 0x40 DUP4 ADD DUP6 PUSH2 0x170E JUMP JUMPDEST DUP3 DUP2 SUB PUSH1 0x20 DUP5 ADD MSTORE PUSH2 0x17B0 DUP2 DUP6 PUSH2 0x170E JUMP JUMPDEST SWAP6 SWAP5 POP POP POP POP POP JUMP JUMPDEST DUP2 DUP2 SUB PUSH2 0x17C4 JUMPI POP POP JUMP JUMPDEST PUSH2 0x17CE DUP3 SLOAD PUSH2 0x14D4 JUMP JUMPDEST PUSH8 0xFFFFFFFFFFFFFFFF DUP2 GT ISZERO PUSH2 0x17E6 JUMPI PUSH2 0x17E6 PUSH2 0x112F JUMP JUMPDEST PUSH2 0x17FA DUP2 PUSH2 0x17F4 DUP5 SLOAD PUSH2 0x14D4 JUMP JUMPDEST DUP5 PUSH2 0x150E JUMP JUMPDEST PUSH1 0x0 PUSH1 0x1F DUP3 GT PUSH1 0x1 DUP2 EQ PUSH2 0x182E JUMPI PUSH1 0x0 DUP4 ISZERO PUSH2 0x1816 JUMPI POP DUP5 DUP3 ADD SLOAD JUMPDEST PUSH1 0x0 NOT PUSH1 0x3 DUP6 SWAP1 SHL SHR NOT AND PUSH1 0x1 DUP5 SWAP1 SHL OR DUP5 SSTORE PUSH2 0x1616 JUMP JUMPDEST PUSH1 0x0 DUP6 DUP2 MSTORE PUSH1 0x20 SWAP1 KECCAK256 PUSH1 0x1F NOT DUP5 AND SWAP1 PUSH1 0x0 DUP7 DUP2 MSTORE PUSH1 0x20 SWAP1 KECCAK256 DUP5 JUMPDEST DUP4 DUP2 LT ISZERO PUSH2 0x1868 JUMPI DUP3 DUP7 ADD SLOAD DUP3 SSTORE PUSH1 0x1 SWAP6 DUP7 ADD SWAP6 SWAP1 SWAP2 ADD SWAP1 PUSH1 0x20 ADD PUSH2 0x1848 JUMP JUMPDEST POP DUP6 DUP4 LT ISZERO PUSH2 0x1886 JUMPI DUP2 DUP6 ADD SLOAD PUSH1 0x0 NOT PUSH1 0x3 DUP9 SWAP1 SHL PUSH1 0xF8 AND SHR NOT AND DUP2 SSTORE JUMPDEST POP POP POP POP POP PUSH1 0x1 SWAP1 DUP2 SHL ADD SWAP1 SSTORE POP JUMP JUMPDEST PUSH4 0x4E487B71 PUSH1 0xE0 SHL PUSH1 0x0 MSTORE PUSH1 0x32 PUSH1 0x4 MSTORE PUSH1 0x24 PUSH1 0x0 REVERT JUMPDEST PUSH1 0x0 PUSH1 0x1 DUP3 ADD PUSH2 0x18CC JUMPI PUSH4 0x4E487B71 PUSH1 0xE0 SHL PUSH1 0x0 MSTORE PUSH1 0x11 PUSH1 0x4 MSTORE PUSH1 0x24 PUSH1 0x0 REVERT JUMPDEST POP PUSH1 0x1 ADD SWAP1 JUMP INVALID LOG2 PUSH5 0x6970667358 0x22 SLT KECCAK256 PUSH18 0x23EF8978F484BB9B5C8A846EE5A14FA91267 BALANCE 0xC3 0xBE 0xC1 EQ 0x27 CALL NUMBER SWAP2 0x25 LOG1 PUSH26 0x4A64736F6C634300081300330000000000000000000000000000 "},"gasEstimates":{"creation":{"codeDepositCost":"1281800","executionCost":"27176","totalCost":"1308976"},"external":{"addFile(bytes32,string,string,address[],uint256)":"infinite","approveProposal(bytes32)":"infinite","compare(string,string)":"infinite","dataOwner(address)":"2609","files(bytes32)":"infinite","isInList(address,address[])":"infinite","owner()":"2324","readFile(bytes32)":"1371","renounceOwnership()":"infinite","setDataOwner(address,bool)":"26946","submitUpdateFileProposal(bytes32,bytes32,string,string)":"infinite","transferOwnership(address)":"28399","writeProposal(bytes32)":"infinite"},"internal":{"_setWriteList(bytes32,address[] memory)":"infinite"}},"methodIdentifiers":{"addFile(bytes32,string,string,address[],uint256)":"042a312a","approveProposal(bytes32)":"f20b5b2c","compare(string,string)":"3a96fdd7","dataOwner(address)":"4d627d88","files(bytes32)":"98c9adff","isInList(address,address[])":"a890b7be","owner()":"8da5cb5b","readFile(bytes32)":"3a72a9c4","renounceOwnership()":"715018a6","setDataOwner(address,bool)":"f8790b20","submitUpdateFileProposal(bytes32,bytes32,string,string)":"407acf57","transferOwnership(address)":"f2fde38b","writeProposal(bytes32)":"9503cf88"}},"storageLayout":{"storage":[{"astId":7,"contract":"contracts/FileAccessControl.sol:FileAccessControl","label":"_owner","offset":0,"slot":"0","type":"t_address"},{"astId":165,"contract":"contracts/FileAccessControl.sol:FileAccessControl","label":"dataOwner","offset":0,"slot":"1","type":"t_mapping(t_address,t_bool)"},{"astId":170,"contract":"contracts/FileAccessControl.sol:FileAccessControl","label":"files","offset":0,"slot":"2","type":"t_mapping(t_bytes32,t_struct(File)151_storage)"},{"astId":175,"contract":"contracts/FileAccessControl.sol:FileAccessControl","label":"writeProposal","offset":0,"slot":"3","type":"t_mapping(t_bytes32,t_struct(Proposal)161_storage)"}],"types":{"t_address":{"encoding":"inplace","label":"address","numberOfBytes":"20"},"t_array(t_address)dyn_storage":{"base":"t_address","encoding":"dynamic_array","label":"address[]","numberOfBytes":"32"},"t_bool":{"encoding":"inplace","label":"bool","numberOfBytes":"1"},"t_bytes32":{"encoding":"inplace","label":"bytes32","numberOfBytes":"32"},"t_mapping(t_address,t_bool)":{"encoding":"mapping","key":"t_address","label":"mapping(address => bool)","numberOfBytes":"32","value":"t_bool"},"t_mapping(t_bytes32,t_struct(File)151_storage)":{"encoding":"mapping","key":"t_bytes32","label":"mapping(bytes32 => struct FileAccessControl.File)","numberOfBytes":"32","value":"t_struct(File)151_storage"},"t_mapping(t_bytes32,t_struct(Proposal)161_storage)":{"encoding":"mapping","key":"t_bytes32","label":"mapping(bytes32 => struct FileAccessControl.Proposal)","numberOfBytes":"32","value":"t_struct(Proposal)161_storage"},"t_string_storage":{"encoding":"bytes","label":"string","numberOfBytes":"32"},"t_struct(File)151_storage":{"encoding":"inplace","label":"struct FileAccessControl.File","members":[{"astId":141,"contract":"contracts/FileAccessControl.sol:FileAccessControl","label":"owner","offset":0,"slot":"0","type":"t_address"},{"astId":143,"contract":"contracts/FileAccessControl.sol:FileAccessControl","label":"name","offset":0,"slot":"1","type":"t_string_storage"},{"astId":145,"contract":"contracts/FileAccessControl.sol:FileAccessControl","label":"readRule","offset":0,"slot":"2","type":"t_string_storage"},{"astId":148,"contract":"contracts/FileAccessControl.sol:FileAccessControl","label":"writers","offset":0,"slot":"3","type":"t_array(t_address)dyn_storage"},{"astId":150,"contract":"contracts/FileAccessControl.sol:FileAccessControl","label":"threshold","offset":0,"slot":"4","type":"t_uint256"}],"numberOfBytes":"160"},"t_struct(Proposal)161_storage":{"encoding":"inplace","label":"struct FileAccessControl.Proposal","members":[{"astId":153,"contract":"contracts/FileAccessControl.sol:FileAccessControl","label":"fileId","offset":0,"slot":"0","type":"t_bytes32"},{"astId":155,"contract":"contracts/FileAccessControl.sol:FileAccessControl","label":"oldname","offset":0,"slot":"1","type":"t_string_storage"},{"astId":157,"contract":"contracts/FileAccessControl.sol:FileAccessControl","label":"newname","offset":0,"slot":"2","type":"t_string_storage"},{"astId":160,"contract":"contracts/FileAccessControl.sol:FileAccessControl","label":"proposer","offset":0,"slot":"3","type":"t_array(t_address)dyn_storage"}],"numberOfBytes":"128"},"t_uint256":{"encoding":"inplace","label":"uint256","numberOfBytes":"32"}}},"userdoc":{"kind":"user","methods":{},"version":1}}}}