{
  "_format": "hh-sol-artifact-1",
  "contractName": "FileAccessControl0",
  "sourceName": "contracts/FileAccessControl0.sol",
  "abi": [
    {
      "anonymous": false,
      "inputs": [
        {
          "indexed": true,
          "internalType": "bytes32",
          "name": "fileId",
          "type": "bytes32"
        },
        {
          "indexed": false,
          "internalType": "address",
          "name": "owner",
          "type": "address"
        },
        {
          "indexed": false,
          "internalType": "string",
          "name": "readRule",
          "type": "string"
        },
        {
          "indexed": false,
          "internalType": "address[]",
          "name": "writeList",
          "type": "address[]"
        }
      ],
      "name": "AddFile",
      "type": "event"
    },
    {
      "anonymous": false,
      "inputs": [
        {
          "indexed": true,
          "internalType": "address",
          "name": "previousOwner",
          "type": "address"
        },
        {
          "indexed": true,
          "internalType": "address",
          "name": "newOwner",
          "type": "address"
        }
      ],
      "name": "OwnershipTransferred",
      "type": "event"
    },
    {
      "anonymous": false,
      "inputs": [
        {
          "indexed": true,
          "internalType": "bytes32",
          "name": "newFileId",
          "type": "bytes32"
        },
        {
          "indexed": true,
          "internalType": "bytes32",
          "name": "oldFileId",
          "type": "bytes32"
        }
      ],
      "name": "UpdateFile",
      "type": "event"
    },
    {
      "anonymous": false,
      "inputs": [
        {
          "indexed": true,
          "internalType": "bytes32",
          "name": "newFileId",
          "type": "bytes32"
        },
        {
          "indexed": true,
          "internalType": "bytes32",
          "name": "oldFileId",
          "type": "bytes32"
        },
        {
          "indexed": false,
          "internalType": "string",
          "name": "readRule",
          "type": "string"
        }
      ],
      "name": "UpdateReadRule",
      "type": "event"
    },
    {
      "anonymous": false,
      "inputs": [
        {
          "indexed": true,
          "internalType": "bytes32",
          "name": "newFileId",
          "type": "bytes32"
        },
        {
          "indexed": true,
          "internalType": "bytes32",
          "name": "oldFileId",
          "type": "bytes32"
        },
        {
          "indexed": false,
          "internalType": "address[]",
          "name": "writeList",
          "type": "address[]"
        }
      ],
      "name": "UpdateWriteList",
      "type": "event"
    },
    {
      "inputs": [
        {
          "internalType": "bytes32",
          "name": "fileId",
          "type": "bytes32"
        },
        {
          "internalType": "string",
          "name": "readRule",
          "type": "string"
        },
        {
          "internalType": "address[]",
          "name": "writeList",
          "type": "address[]"
        }
      ],
      "name": "addFile",
      "outputs": [],
      "stateMutability": "nonpayable",
      "type": "function"
    },
    {
      "inputs": [
        {
          "internalType": "address",
          "name": "",
          "type": "address"
        }
      ],
      "name": "dataOwner",
      "outputs": [
        {
          "internalType": "bool",
          "name": "",
          "type": "bool"
        }
      ],
      "stateMutability": "view",
      "type": "function"
    },
    {
      "inputs": [
        {
          "internalType": "bytes32",
          "name": "",
          "type": "bytes32"
        }
      ],
      "name": "fileOwners",
      "outputs": [
        {
          "internalType": "address",
          "name": "",
          "type": "address"
        }
      ],
      "stateMutability": "view",
      "type": "function"
    },
    {
      "inputs": [
        {
          "internalType": "bytes32",
          "name": "",
          "type": "bytes32"
        },
        {
          "internalType": "uint256",
          "name": "",
          "type": "uint256"
        }
      ],
      "name": "fileWriters",
      "outputs": [
        {
          "internalType": "address",
          "name": "",
          "type": "address"
        }
      ],
      "stateMutability": "view",
      "type": "function"
    },
    {
      "inputs": [
        {
          "internalType": "bytes32",
          "name": "fileId",
          "type": "bytes32"
        },
        {
          "internalType": "address",
          "name": "user",
          "type": "address"
        }
      ],
      "name": "isWriter",
      "outputs": [
        {
          "internalType": "bool",
          "name": "",
          "type": "bool"
        }
      ],
      "stateMutability": "view",
      "type": "function"
    },
    {
      "inputs": [],
      "name": "owner",
      "outputs": [
        {
          "internalType": "address",
          "name": "",
          "type": "address"
        }
      ],
      "stateMutability": "view",
      "type": "function"
    },
    {
      "inputs": [
        {
          "internalType": "bytes32",
          "name": "",
          "type": "bytes32"
        }
      ],
      "name": "readFileRule",
      "outputs": [
        {
          "internalType": "string",
          "name": "",
          "type": "string"
        }
      ],
      "stateMutability": "view",
      "type": "function"
    },
    {
      "inputs": [],
      "name": "renounceOwnership",
      "outputs": [],
      "stateMutability": "nonpayable",
      "type": "function"
    },
    {
      "inputs": [
        {
          "internalType": "address",
          "name": "user",
          "type": "address"
        },
        {
          "internalType": "bool",
          "name": "isDataOwner",
          "type": "bool"
        }
      ],
      "name": "setDataOwner",
      "outputs": [],
      "stateMutability": "nonpayable",
      "type": "function"
    },
    {
      "inputs": [
        {
          "internalType": "address",
          "name": "newOwner",
          "type": "address"
        }
      ],
      "name": "transferOwnership",
      "outputs": [],
      "stateMutability": "nonpayable",
      "type": "function"
    },
    {
      "inputs": [
        {
          "internalType": "bytes32",
          "name": "newFileId",
          "type": "bytes32"
        },
        {
          "internalType": "bytes32",
          "name": "oldFileId",
          "type": "bytes32"
        }
      ],
      "name": "updateFile",
      "outputs": [],
      "stateMutability": "nonpayable",
      "type": "function"
    },
    {
      "inputs": [
        {
          "internalType": "bytes32",
          "name": "newFileId",
          "type": "bytes32"
        },
        {
          "internalType": "bytes32",
          "name": "oldFileId",
          "type": "bytes32"
        },
        {
          "internalType": "string",
          "name": "readRule",
          "type": "string"
        }
      ],
      "name": "updateReadRule",
      "outputs": [],
      "stateMutability": "nonpayable",
      "type": "function"
    },
    {
      "inputs": [
        {
          "internalType": "bytes32",
          "name": "newFileId",
          "type": "bytes32"
        },
        {
          "internalType": "bytes32",
          "name": "oldFileId",
          "type": "bytes32"
        },
        {
          "internalType": "address[]",
          "name": "writeList",
          "type": "address[]"
        }
      ],
      "name": "updateWriteList",
      "outputs": [],
      "stateMutability": "nonpayable",
      "type": "function"
    }
  ],
  "bytecode": "0x608060405234801561001057600080fd5b5061001a3361001f565b61006f565b600080546001600160a01b038381166001600160a01b0319831681178455604051919092169283917f8be0079c531659141344cd1fd0a4f28419497f9722a3daafe3b4186f6b6457e09190a35050565b6110208061007e6000396000f3fe608060405234801561001057600080fd5b50600436106100cf5760003560e01c8063947efe061161008c578063ece3678111610066578063ece36781146101be578063f2fde38b146101e7578063f32b4be7146101fa578063f8790b201461020d57600080fd5b8063947efe0614610178578063b301803d1461018b578063b50a54531461019e57600080fd5b806330c8b59b146100d457806337b519e1146101045780634d627d88146101195780636df2a1851461014c578063715018a61461015f5780638da5cb5b14610167575b600080fd5b6100e76100e2366004610993565b610220565b6040516001600160a01b0390911681526020015b60405180910390f35b6101176101123660046109fe565b610258565b005b61013c610127366004610a6d565b60016020526000908152604090205460ff1681565b60405190151581526020016100fb565b61011761015a366004610ad4565b61037f565b610117610488565b6000546001600160a01b03166100e7565b610117610186366004610993565b61049c565b61013c610199366004610b4e565b6105b6565b6101b16101ac366004610b7a565b61063e565b6040516100fb9190610b93565b6100e76101cc366004610b7a565b6002602052600090815260409020546001600160a01b031681565b6101176101f5366004610a6d565b6106d8565b610117610208366004610be1565b610751565b61011761021b366004610c28565b610836565b6004602052816000526040600020818154811061023c57600080fd5b6000918252602090912001546001600160a01b03169150829050565b60008381526002602052604090205483906001600160a01b031633146102995760405162461bcd60e51b815260040161029090610c64565b60405180910390fd5b600085815260026020908152604080832080546001600160a01b03191633179055868352600482529182902080548351818402810184019094528084526103239389939092919083018282801561031957602002820191906000526020600020905b81546001600160a01b031681526001909101906020018083116102fb575b5050505050610869565b600085815260036020526040902061033c838583610d2b565b5083857fce4df9af5a1313608b82c2e4ec2dc4985786c701e1251ed490a900478158941f8585604051610370929190610e15565b60405180910390a35050505050565b3360009081526001602052604090205460ff166103d05760405162461bcd60e51b815260206004820152600f60248201526e27b7363c903230ba309037bbb732b960891b6044820152606401610290565b600085815260026020908152604080832080546001600160a01b0319163317905560039091529020610403848683610d2b565b506104418583838080602002602001604051908101604052809392919081815260200183836020028082843760009201919091525061086992505050565b847f9ac322b75678092dca1935ded71e46c2af3d75d540c2797fd4a1eee39330ec1c3386868686604051610479959493929190610e78565b60405180910390a25050505050565b6104906108e9565b61049a6000610943565b565b60008181526002602052604090205481906001600160a01b031633146104d45760405162461bcd60e51b815260040161029090610c64565b600083815260026020908152604080832080546001600160a01b0319163317905584835260039091528082208583529120906105109082610ebc565b506105848360046000858152602001908152602001600020805480602002602001604051908101604052809291908181526020018280548015610319576020028201919060005260206000209081546001600160a01b031681526001909101906020018083116102fb575050505050610869565b604051829084907f4e9dfd3df2c258f379b0e8c984deb7db0127eb702043af8ba1ccad62a2df046890600090a3505050565b6000805b60008481526004602052604090205481101561063257600084815260046020526040902080546001600160a01b0385169190839081106105fc576105fc610f99565b6000918252602090912001546001600160a01b031603610620576001915050610638565b8061062a81610faf565b9150506105ba565b50600090505b92915050565b6003602052600090815260409020805461065790610ca3565b80601f016020809104026020016040519081016040528092919081815260200182805461068390610ca3565b80156106d05780601f106106a5576101008083540402835291602001916106d0565b820191906000526020600020905b8154815290600101906020018083116106b357829003601f168201915b505050505081565b6106e06108e9565b6001600160a01b0381166107455760405162461bcd60e51b815260206004820152602660248201527f4f776e61626c653a206e6577206f776e657220697320746865207a65726f206160448201526564647265737360d01b6064820152608401610290565b61074e81610943565b50565b60008381526002602052604090205483906001600160a01b031633146107895760405162461bcd60e51b815260040161029090610c64565b600085815260026020908152604080832080546001600160a01b0319163317905586835260039091528082208783529120906107c59082610ebc565b506108038584848080602002602001604051908101604052809392919081815260200183836020028082843760009201919091525061086992505050565b83857ffe6cb463025b00c7f0fa74f5cc8c6710ba0b337683fa689a4f7b79cca249de468585604051610370929190610fd6565b61083e6108e9565b6001600160a01b03919091166000908152600160205260409020805460ff1916911515919091179055565b60005b81518110156108e4576000838152600460205260409020825183908390811061089757610897610f99565b60209081029190910181015182546001810184556000938452919092200180546001600160a01b0319166001600160a01b03909216919091179055806108dc81610faf565b91505061086c565b505050565b6000546001600160a01b0316331461049a5760405162461bcd60e51b815260206004820181905260248201527f4f776e61626c653a2063616c6c6572206973206e6f7420746865206f776e65726044820152606401610290565b600080546001600160a01b038381166001600160a01b0319831681178455604051919092169283917f8be0079c531659141344cd1fd0a4f28419497f9722a3daafe3b4186f6b6457e09190a35050565b600080604083850312156109a657600080fd5b50508035926020909101359150565b60008083601f8401126109c757600080fd5b50813567ffffffffffffffff8111156109df57600080fd5b6020830191508360208285010111156109f757600080fd5b9250929050565b60008060008060608587031215610a1457600080fd5b8435935060208501359250604085013567ffffffffffffffff811115610a3957600080fd5b610a45878288016109b5565b95989497509550505050565b80356001600160a01b0381168114610a6857600080fd5b919050565b600060208284031215610a7f57600080fd5b610a8882610a51565b9392505050565b60008083601f840112610aa157600080fd5b50813567ffffffffffffffff811115610ab957600080fd5b6020830191508360208260051b85010111156109f757600080fd5b600080600080600060608688031215610aec57600080fd5b85359450602086013567ffffffffffffffff80821115610b0b57600080fd5b610b1789838a016109b5565b90965094506040880135915080821115610b3057600080fd5b50610b3d88828901610a8f565b969995985093965092949392505050565b60008060408385031215610b6157600080fd5b82359150610b7160208401610a51565b90509250929050565b600060208284031215610b8c57600080fd5b5035919050565b600060208083528351808285015260005b81811015610bc057858101830151858201604001528201610ba4565b506000604082860101526040601f19601f8301168501019250505092915050565b60008060008060608587031215610bf757600080fd5b8435935060208501359250604085013567ffffffffffffffff811115610c1c57600080fd5b610a4587828801610a8f565b60008060408385031215610c3b57600080fd5b610c4483610a51565b915060208301358015158114610c5957600080fd5b809150509250929050565b6020808252600f908201526e27b7363c903334b6329037bbb732b960891b604082015260600190565b634e487b7160e01b600052604160045260246000fd5b600181811c90821680610cb757607f821691505b602082108103610cd757634e487b7160e01b600052602260045260246000fd5b50919050565b601f8211156108e457600081815260208120601f850160051c81016020861015610d045750805b601f850160051c820191505b81811015610d2357828155600101610d10565b505050505050565b67ffffffffffffffff831115610d4357610d43610c8d565b610d5783610d518354610ca3565b83610cdd565b6000601f841160018114610d8b5760008515610d735750838201355b600019600387901b1c1916600186901b178355610de5565b600083815260209020601f19861690835b82811015610dbc5786850135825560209485019460019092019101610d9c565b5086821015610dd95760001960f88860031b161c19848701351681555b505060018560011b0183555b5050505050565b81835281816020850137506000828201602090810191909152601f909101601f19169091010190565b602081526000610e29602083018486610dec565b949350505050565b8183526000602080850194508260005b85811015610e6d576001600160a01b03610e5a83610a51565b1687529582019590820190600101610e41565b509495945050505050565b6001600160a01b0386168152606060208201819052600090610e9d9083018688610dec565b8281036040840152610eb0818587610e31565b98975050505050505050565b818103610ec7575050565b610ed18254610ca3565b67ffffffffffffffff811115610ee957610ee9610c8d565b610efd81610ef78454610ca3565b84610cdd565b6000601f821160018114610f315760008315610f195750848201545b600019600385901b1c1916600184901b178455610de5565b600085815260209020601f19841690600086815260209020845b83811015610f6b5782860154825560019586019590910190602001610f4b565b5085831015610f895781850154600019600388901b60f8161c191681555b5050505050600190811b01905550565b634e487b7160e01b600052603260045260246000fd5b600060018201610fcf57634e487b7160e01b600052601160045260246000fd5b5060010190565b602081526000610e29602083018486610e3156fea26469706673582212209dc9836daebdf7c9c2746d85a9be18f2467cc5e612d89e647b5d85ca3b61fdaf64736f6c63430008130033",
  "linkReferences": {},
  "deployedLinkReferences": {}
}